:020000040800F2
:100000007010002079020008853100087D31000859
:1000100081310008051C00089D3500080000000023
:10002000000000000000000000000000B1310008E6
:10003000091C0008000000008F020008910200085F
:10004000930200089302000893020008930200083C
:10005000930200089302000893020008930200082C
:10006000930200089302000893020008930200081C
:10007000930200089302000893020008930200080C
:1000800093020008930200089302000893020008FC
:1000900093020008930200089302000893020008EC
:1000A00093020008930200089302000893020008DC
:1000B00093020008930200089302000893020008CC
:1000C00093020008930200089302000893020008BC
:1000D0009302000871340008930200089534000868
:1000E000930200089302000893020008930200089C
:1000F000930200089302000893020008930200088C
:10010000930200089302000893020008930200087B
:10011000930200089302000893020008930200086B
:10012000930200089302000893020008930200085B
:1001300000F002F800F090F80AA090E8000C824469
:100140008344AAF10107DA4501D100F085F8AFF246
:10015000090EBAE80F0013F0010F18BFFB1A43F0A5
:1001600001031847E0A9000000AA0000103A24BFCC
:1001700078C878C1FAD8520724BF30C830C144BF0C
:1001800004680C607047000000230024002500264E
:10019000103A28BF78C1FBD8520728BF30C148BFEA
:1001A0000B6070476E2900F0F882702900F05F81C3
:1001B000662907F07784652907F07484672907F0BA
:1001C0007184612907F0708403681B0A28BF41F01D
:1001D0008001692900F0D080642900F0CD80752964
:1001E00000F0CA806F2900F0F083782900F02B819D
:1001F000E92900F08B83E42900F08883F52900F0D9
:100200008583EF2900F0ED83F82900F02A81036847
:10021000DB0928BF41F08001632900F0FA827329CD
:1002200000F0FF82E32900F0C387F32900F0C887BC
:10023000002070471FB501F019F8040000200021CC
:1002400007F0DCFA401C60600020002107F0C0FAD3
:10025000E0601FBD10B510BD00F0DAFF1146FFF7DA
:10026000E9FF07F0DDF901F0B7F803B4FFF7F2FF9B
:1002700003BC03F0CCF90000094880470948004757
:10028000FEE7FEE7FEE7FEE7FEE7FEE7FEE7FEE746
:10029000FEE7FEE704480549054A064B70470000A3
:1002A000B331000831010008700A002070100020EE
:1002B000700C0020700C0020704700001CB50C462C
:1002C000064B7B4469460090204600F080FA0446C5
:1002D0000020694600F08EFA20461CBD2F05000064
:1002E0000FB4044910B503AA029800F09FFA10BC9D
:1002F0005DF814FB080000200FB41CB5084B06AADB
:100300007B4469460090059800F061FA044600209D
:10031000694600F06FFA20461CBC5DF814FB000033
:10032000F104000070B50C460546012A05D0287876
:10033000800600D5EA69002302E0012305E05B1C8A
:10034000934202D2E05C0028F9D1A869E618C01AED
:10035000A861286A18442862284600F08CF904E055
:10036000D5E9012114F8010B9047B442F8D328468F
:1003700000F097F970BD00002DE9F0410646002419
:1003800010687529314616A510D000F09BF9002899
:1003900002DA404213A507E031688A0701D512A5A9
:1003A00002E0490704D511A5012401E000F093F90A
:1003B00000210A2206F1240709E0B0FBF2FCB0FBA1
:1003C000F2F302FB1C00303078541846491C002818
:1003D000F3D123462A463046BDE8F04100F084B907
:1003E000000000002D0000002B0000002000000095
:1003F000F0B40D460188090502D5214C7C4402E089
:100400001F4C7C440E34002100F1240608E002F069
:100410000F071209E75D42EA03721B097754491C72
:1004200052EA0307F3D102780023120704D5702D96
:1004300006D009B1022311342246F0BC00F054B9B1
:1004400001231034F8E770B504460D4621461068C4
:1004500000F041F9024629462046BDE870400023DD
:10046000C6E7D21D22F00703D3E90023C0E70368E3
:10047000126843F0200303600823C3610023B7E739
:1004800044A600002DE9F05F894604464FF0000ABB
:10049000DFF874B1FB44C0F820A02046E16888472B
:1004A000002874D0252806D0D4E901219047206A7D
:1004B000401C2062F1E700265F462046E16888473D
:1004C0002028054607DB312D05D2781910F8200CBD
:1004D00008B10643F1E7B00701D526F00406C4F8D9
:1004E0001CA00027C4F818A02A2D09D0284603F024
:1004F00087F838B304EB8708303DC8F8185019E086
:1005000059F8041B204604EB87029161E168884793
:10051000012F054618D1E069002820DA26F02006D0
:100520001DE0D8F8180000EB800005EB40003038E3
:10053000C8F818002046E1688847054603F060F8CF
:100540000028EED1012F0AD02E2D08D12046E168D7
:1005500088477F1C0546022F46F02006C4DBA069B1
:10056000002803DA404246F00106A061F00701D0FE
:1005700026F010066C2D0BD0682D09D04C2D39D0EB
:100580006A2D35D0742D35D07A2D33D016E038E071
:10059000E1682F4620468847B842054609D16C2FAE
:1005A00026D04FF48060E168064320468847054620
:1005B00004E06C2F1AD04FF4807006430DB3A5F100
:1005C0004100192802D8203546F400664A462946DB
:1005D000204626604E46FFF7E5FD80B101280BD08E
:1005E000F61D26F0070000F1080956E74020E4E771
:1005F0008020D8E70020D6E706F104094DE7284619
:1006000052E7206ABDE8F09FD4A5000030B505464A
:100610000B462A4613F8014B12F8010B08B1A04211
:10062000F8D01CB1002802D06D1CF1E7284630BD7F
:1006300010B5431C02E010F8011B71B18107FAD11B
:100640004FF0013202C88C1A8C4314EAC211F9D05F
:10065000C01A0A0603D0C01E10BDC01A10BD0A047D
:1006600001D0801E10BD0902FCD0401E10BD704795
:1006700070477047704770B5044685690068C106C9
:1006800001D5302600E02026C00707D070BDD4E990
:10069000012130469047206A401C20626D1EF6D52D
:1006A00070BD70B5044685690078C00707D170BD7C
:1006B000D4E9012120209047206A401C20626D1E51
:1006C000F6D570BD09684A0501D540B27047C90525
:1006D000FCD500B2704709684A0501D5C0B2704721
:1006E000C905FCD580B270472DE9F0470D46994603
:1006F0009246044600F124080168880604D5E069A2
:1007000021F01001216000E00120A84201DD471B1B
:1007100000E00027A1697A1902EB0900081AA0611C
:100720002078C00602D42046FFF7A5FF002608E087
:10073000D4E901211AF806009047206A401C761C73
:1007400020624E45F4DB2078C0060AD52046FFF72C
:1007500092FF06E0D4E9012130209047206A401C36
:100760002062381EA7F10107F4DC07E0D4E901217B
:1007700018F805009047206A401C2062281EA5F149
:100780000105F3DC2046FFF78CFF2078000602D538
:100790000220BDE8F0870120FBE711680268006ACB
:1007A000530501D508700AE0D30501D5088006E09D
:1007B000130603D5C217C1E9000200E0086001205A
:1007C0007047000001694A1C02610878704700B553
:1007D0008FB0CDE901310021059105497944CDE97A
:1007E000031011466846FFF74DFE0FB000BD000034
:1007F000E5FFFFFF0A6802F8010B0A60704710B5B9
:10080000436913B1AFF3008001E0FFF78BFD0120D6
:1008100010BD127800F124010A7000224A700122F2
:10082000EDE711684FF0FF32E9E70000074B70B5C4
:100830000D467B44FFF7CBFF0446284600F0C4FC7E
:1008400010B14FF0FF3070BD204670BD573700002B
:100850002DE9FF5F15468A460446DFF8AC80F84470
:100860000027D8E900103E46CDE9001010E03AF824
:1008700016106A4602A800F0ABFC411C07D0217894
:10088000890603D5E269391891420DD80744761CD0
:100890002078800602D5E069B84205DDAE42E6DB8D
:1008A0003AF816000028E2D1A069C01BA0612046DA
:1008B000FFF7E1FED8E90010CDE90010002017E0B5
:1008C0003AF818106A4602A800F082FCB0F1FF3F27
:1008D00081460BD000250DF1080B05E0D4E901217C
:1008E0001BF8050090476D1C4D45F7D308F101003A
:1008F000B0428046E4DB206A384420622046FFF79D
:10090000D0FEBDE8FF9F00001EA200002DE9F041CF
:100910008046D21D22F007020025D2E90002F52907
:1009200015A614D0011E72F1000106DA0023D0EBE7
:10093000030063EB020211A608E0D8F800108B0751
:1009400001D50FA602E0490701D50EA601251146E3
:10095000002408F1240704E000F04EF830323A5544
:10096000641C50EA0102F7D12B463246214640462C
:10097000BDE8F041FFF7B8BE000000002D00000008
:100980002B0000002000000030B4002100F12404FE
:1009900008E002F00705D208303542EA4372DB086E
:1009A0006554491C52EA0305F3D10468002310A2E0
:1009B000250707D5A40600D421B1C46901230DA2DF
:1009C000641EC46130BCFFF78FBE10B504462146DB
:1009D0001068FFF780FE02462046BDE81040002365
:1009E000D2E7D21D22F00701D1E90023CCE70000B5
:1009F000000000003000000030B5B0F10A024FEAFC
:100A0000900E71F100034EEA817EB0EB0E0061EBB7
:100A100091014FEA101E4EEA017E10EB0E0041EBF1
:100A200011114FEA102E4EEA016E10EB0E0041EB51
:100A300011214FEA104E4EEA014E10EB0E0041EB31
:100A40001141401841F100014FEAD00040EA4170E5
:100A50004FEAD10110EB80054FEA810444EA90741B
:100A600044EB01046D1944EB0404521BA3414FF005
:100A7000000348BF0A3200D530BD401C41F10001DF
:100A800030BD70472DE9FF4F0C461E464FF0FF3733
:100A90008BB0D2E90001DDF860800A908A46C1F38C
:100AA0000A5505B93D46002108464FF00000BAF14D
:100AB000000F00F4400005DA00EB80004FF4400125
:100AC00001EA50004FEA9059B9F1010F00DDB94633
:100AD0000A9850EA4A000ED044F61050A5F2FF35AD
:100AE00045432F14B8F1000F1ED07542291E1EDD9C
:100AF000C9F100021CE0B8F1010F4FF0000001D075
:100B0000302103E0F24305E02154401CB042FBDBFE
:100B100030460022002121540B99C1F80880C1E918
:100B200000200FB0BDE8F08FBD1B6D1CDEE74A460C
:100B300000DA694206A800F0DDFB06AB93E8070087
:100B400003AB83E8070050460A9900F093FC8DE858
:100B50000700A0F500501F3800900398002D0ADD13
:100B600042F21F014A460844002303A90390684645
:100B700000F0FCFE09E0A0F500504A461F380023B3
:100B800003A90390684600F006FF8DE80700000403
:100B9000000C03D04FF0FF30410800E01046B8F1E0
:100BA000000F03D00022009215461EE0751E05D4EA
:100BB000FFF722FF303262556D1EF9D5B346012290
:100BC000084302D000227F1C04E02078302801D1A5
:100BD00000227F1E002A099784D01DE0112D07DA1C
:100BE000FFF70AFF303262556D1C50EA0102F5D161
:100BF000084302D00098C8B10EE00021681E05E04D
:100C0000235C625C63542254401E491C8142F7DB22
:100C1000AB46A81B401E0990002004F80B000B985F
:100C2000099AC0F80880C0E9002B7AE711264FF036
:100C3000000857E72DE9F04F88460446D21D22F000
:100C4000070191B0D1E90001CDE90A0102F0A8FC49
:100C500002460B98C00F01D02D2007E020688107C5
:100C600001D52B2002E0202101EAC000032A0990CF
:100C700001D0072A05DB03464146204600F0FAFA78
:100C80000BE12078800601D5E06900E00620B8F18C
:100C9000650F814606D0B8F1660F18D0B8F1670F1E
:100CA00070D131E00020B9F1110F009001DB112368
:100CB00001E009F101030AAA01A90CA8FFF7E2FE6D
:100CC000DDE90C70002609F10105834647E00120AB
:100CD0004B4600904FF000470AAA01A90CA8FFF765
:100CE000D1FEDDE90DB00C995D46002610B909F181
:100CF00001000D18B9EB050003D4C0F1FF3609F16E
:100D00000105A5EB09002BE0B9F1010F01DA4FF065
:100D100001090020B9F1110F0090484601DD1123AF
:100D200000E003460AAA01A90CA8FFF7ABFEDDE923
:100D30000C704D4600268346207800070AD4AB4548
:100D400000DA5D4601A8012D04DD411911F8011CEE
:100D5000302907D04F4502DA17F1040F04DA0120D9
:100D600082460FE06D1EEEE7002F02DCED1B3E44D5
:100D700003E0781CA84200DD7D1CB81B00F1010ACD
:100D80004FF000472078000703D4AA4501DB4FF05D
:100D9000FF3A0021B7F1004F0DF143088DF84310E1
:100DA00024D002202B23002F01DA7F422D230A2199
:100DB000021EA0F1010000DC5FB197FBF1FC97FB84
:100DC000F1F201FB1C7C17460CF1300C08F801CD48
:100DD000EEE7A8F1010003702188090501D545213E
:100DE00000E06521A0F1010800F8011C09980FA995
:100DF000A1EB0807FF1D00B10120411901EBEA70CA
:100E0000A1693844081A401EA0612078C00602D4A7
:100E10002046FFF730FC099828B1D4E9012190471A
:100E2000206A401C20622078C00622D52046FFF7A9
:100E300022FC1EE0002E04DBB34502DD01A8805D2C
:100E400000E03020D4E901219047206A401C206254
:100E5000761CAAF101005FEA000A0AD100F006FA46
:100E6000C0680168405CD4E901219047206A401CB9
:100E70002062281EA5F10105DCDC07E0D4E9012190
:100E800018F8010B9047206A401C2062381EA7F119
:100E90000107F3DC2046FFF704FC032011B041E614
:100EA0002DE9F04F04460D46D21D22F0070089B00F
:100EB000D0E900974846394602F072FB0246F80F27
:100EC00001D02D2307E02068810701D52B2302E004
:100ED000202101EAC0038DF820300BB1012000E091
:100EE0000020032A824601D0072A04DB2946204637
:100EF00000F0C0F93FE12078800601D40D2500E024
:100F0000E569C7F30A560D2D49DA00214FEA175B50
:100F100008464FF00000002F00F4400007DA00EB15
:100F200080004FF4400100EBD07001EA60008115B1
:100F3000012901DD4FF0FF3100224FEA850CBCF1A1
:100F4000180F06D31346ACF118004FF08052C24080
:100F500003E04FF4801323FA0CF30CF10C0CBCF1FA
:100F6000200F04D3ACF1200C09FA0CF001E007FAD1
:100F70000CF000294FF0004801DD18B90FE00ED148
:100F800040450CD319EB02095F4121B9404502D11C
:100F90009F4329EA0209BBEB175F00D0761C20882B
:100FA000000502D57B48784402E07A487844193835
:100FB00008AA302302F80A30037C0AF10101002E4E
:100FC0000AF1020A53546A4602DC4FF0300101E094
:100FD0004FF031014FF001088DF8001002D0A6F259
:100FE000FF3603E059EA470100D06B4E002D02DCCA
:100FF0002178090704D54FF002082E218DF8011041
:10100000C44600210BE0C7F303433F01C35C491C06
:101010006D1E02F80830052908F1010801DA002DDB
:10102000F1DC00210CE000EB1973491C1B786D1EEC
:10103000082902F808304FEA091908F1010801DA15
:10104000002DF0DC21688B0602D516E0A8F101081E
:10105000E04505DD02EB080313F8013C302BF5D029
:10106000B8F1000F09DD02EB080313F8013C2E2B49
:1010700003D1090701D4A8F10108002D05DD3E21A7
:1010800002F808106D1E08F10108407C002E02F8DD
:10109000080008F1010804DA2D20764202F8080061
:1010A00002E02B2002F808000A214FF47A708642F1
:1010B00008F101080BDB96FBF0F3303302F808303F
:1010C00096FBF0F308F1010800FB136601E0642EC3
:1010D0000CDB642096FBF0F3303302F8083096FB0B
:1010E000F0F308F1010800FB136601E00A2E06DBAD
:1010F00096FBF1F0303002F8080008F1010896FB89
:10110000F1F001FB1060303002F80800A16908F12D
:10111000010808EB050202EB0A00081AA06120781A
:10112000C00602D42046FFF7A6FA216A08AE01EBFA
:101130000A00206204E0D4E9012116F8010B90476F
:10114000BAF1010AF7D22078C00602D52046FFF78F
:1011500092FA6E4609E016F8010B3E280FD0D4E94A
:1011600001219047206A401C2062B8F10108F2D2A8
:101170002046FFF796FA09B00320BDE8F08F206AF9
:101180002844206203E0D4E90121302090476D1EFD
:10119000EBD3F8E7F19A000002FCFFFF10B54369BA
:1011A00013B1AFF3008001E0FFF752FB012010BD47
:1011B000128800F1240182840022C2840122EDE71A
:1011C00011684FF0FF32E9E7007B00F080007047C4
:1011D00070B516460C46054600F040F8036893F8D3
:1011E0000101012806D0FF2C0FD8185D68B101203D
:1011F0002C7070BDD3F807013246214603F2071365
:1012000003442846BDE8704018474FF0FF3070BDDA
:10121000754600F0EBF8AE4605006946534620F0EF
:101220000700854618B020B5FFF734F8BDE8204028
:101230004FF000064FF000074FF000084FF0000B92
:1012400021F00701AC46ACE8C009ACE8C009ACE845
:10125000C009ACE8C0098D467047000010B500F029
:1012600005F8001D10BD00BF9565000000487047DF
:101270002C0A00202DE9F0411F4604460326016890
:10128000072A01F4006004DB08B116A505E016A5E5
:1012900003E008B115A500E015A521F010002060BD
:1012A000A069C01EA0610FB1401EA0612046FFF7DB
:1012B000E2F94FB1D4E9012138469047206A401C39
:1012C0002062C01C206206E0206AFAE7D4E901210E
:1012D00015F8010B9047761EF8D22046FFF7E1F98A
:1012E000BDE8F0814E414E006E616E00494E4600F1
:1012F000696E66002DE9F047814616468AB035488A
:1013000078440DC88DE80D0032487844801C03AC49
:101310000DC884E80D0041F69B300844372190FB4E
:10132000F1F290FBF1F5A5F1800501FB12041B3CE5
:1013300002D56442012000E00020DFF898A080463A
:101340000027FA44AAF1BE0A0EE0E0070AD03246AE
:10135000684607EB470101230AEB810100F01BFB04
:101360008DE8070064107F1C002CEED1194F7F44DC
:10137000AE3F19E0E80715D007EB04100DF1180A8D
:1013800090E80E008AE80E00C068F04201D198197A
:1013900008903246012306A903A800F0FCFA03AB2B
:1013A00083E807006D10641C002DE3D14FF00103AA
:1013B00032466946B8F1000F03A802D000F0D6FA11
:1013C00001E000F0E8FAC9E90001C9F808200AB014
:1013D000BDE8F0872898000010B50446AFF3008000
:1013E0002046BDE81040FEF740BF000000487047AF
:1013F0000C0A00204FF0013C50F8042B51F8043B3C
:101400009A4221D1A2EB0C03934313EACC1317D1D8
:1014100050F8042B51F8043B9A4215D1A2EB0C036F
:10142000934313EACC130BD150F8042B51F8043B2F
:101430009A4209D1A2EB0C03934313EACC13DBD0FD
:101440004FF00000704700BFD01A01BAB1FA81F125
:1014500001F0180122FA01F0CB40C1F12001DBB20A
:10146000C0B2C01A2CFA01F3D11A914311EAC31188
:10147000E6D170475FEA400C08BF91F0000F4FEAD9
:101480008C234FEAC12243EA51514FEA1C5018BF46
:1014900000F5F0404FEA300018BF41F000415FEA2C
:1014A0006C5C00F02980BCF1FF3F08BF40F0804039
:1014B0007047130C06BF12044FF0100C4FF0000CD5
:1014C000130E04BF12020CF1080C130F04BF12011B
:1014D0000CF1040C930F04BF92000CF1020CD30F1B
:1014E00004BF52000CF1010C11464FF00002A0F1B4
:1014F0001F00A0EB0C00704711F0004F08BF7047B1
:1015000031F000413FF4D5AF0B0C06BF09044FF09A
:10151000100C4FF0000C0B0E04BF09020CF1080C6C
:101520000B0F04BF09010CF1040C8B0F04BF8900E1
:101530000CF1020CCB0F04BF49000CF1010CCCF1F3
:101540002003A0EB0C0022FA03F302FA0CF241EAAA
:10155000030100F10100704720F07F4C80EA030096
:1015600023F07F47ACEB070303F57C5300F000400A
:1015700003F1FF032DE980494FEA154B09B44FEA07
:10158000144325EA0B4E24EA03480FF2042606EB27
:10159000132749083E785FEA320203FB0667C7F566
:1015A000000707FB06F64FEA54374FEAD64606F126
:1015B000020607FB066CCCF1005C4FEA1C472CEAE4
:1015C000074C07FB06F40CFB06F504EB15464FEA47
:1015D000961634BF00204FF000404FEAD13706FB8B
:1015E00007FC4FEA1C4C0CFB0BF7D21B03FB0CF760
:1015F00061EB07010CFB0EF7B0EB074072EB1742F3
:101600000CFB08F734BFA2EB0742B2EB074261EBD9
:1016100017414FEA0C444FEA910706FB07FC4FEADB
:101620001C4C0CFB0BF7B0EBC74072EB573203FBC3
:101630000CF734BFA2EBC742B2EBC74261EB5731A4
:101640000CFB0EF7B0EBC70072EB57720CFB08F700
:1016500034BFA2EBC702B2EBC70261EB5771039F25
:101660004FEA816141EA921104EBCC044FEAD13791
:101670004FEA826206FB07FC42EA90124FEA806062
:101680004FEA1C4C0CFB0BF7D21B03FB0CF761EB76
:1016900007010CFB0EF7B0EB074072EB17420CFB97
:1016A00008F734BFA2EB0742B2EB074261EB1741E8
:1016B0004FEA8C554FEA910704EB9C2406FB07FC8C
:1016C0004FEA1C4C0CFB0BF7B0EBC74072EB5732E8
:1016D00003FB0CF734BFA2EBC742B2EBC74261EB8E
:1016E00057310CFB0EF7B0EBC70072EB57720CFBD7
:1016F00008F734BFA2EBC702B2EBC70261EB577128
:1017000015EB4C254FEA816141EA92114FEA826262
:101710004FEAD13742EA901206FB07FC44F100047D
:101720004FEA80604FEA1C4C0CFB0BF7D21B03FB0B
:101730000CF761EB07010CFB0EF7B0EB074072EB07
:1017400017420CFB08F734BFA2EB0742B2EB07428B
:1017500061EB174115EB1C154FEA813141EA9241CB
:101760004FEA823242EA90424FEA80304FEA0C76EA
:1017700044F1000448EA03434EEA0B484FF0000EE0
:10178000B2EB080C71EB030724BF624639464EEBFF
:101790000E0E4FF0000B0018524149414BEB0B0B62
:1017A000B2EB080C71EB03077BF1000B24BF624620
:1017B00039464EEB0E0E4FF0000B001852414941D6
:1017C0004BEB0B0BB2EB080C71EB03077BF1000B3F
:1017D00024BF624639464EEB0E0E51EA020718BF8F
:1017E00046F0010616EB0E7655F1000254F10001A9
:1017F00003D5BDE88901BDE80088BDE88901BDE8E1
:101800000048B619524141EB0101A3F101037047B1
:1018100080807F7E7D7C7B7A79787776767574732D
:10182000727171706F6E6E6D6C6C6B6A6A696868EC
:10183000676666656464636362616160605F5F5E82
:101840005E5D5D5C5C5B5B5A5A59595858575756F8
:10185000565555555454535352525251515050505D
:101860004F4F4F4E4E4D4D4D4C4C4C4B4B4B4A4AAF
:101870004A494949484848474747474646464545F3
:10188000454444444443434343424242424141412C
:10189000002B9C4630D477002BD01CB54FEA37077D
:1018A00003B44FF010004FF01001BAF1000F06D052
:1018B000BCF1000FDCBF40F0080040F008014FF021
:1018C00000000FBCBDE810400BF1010BBBF1010F94
:1018D00008BF5FEA170722BF12F1010211F10101EF
:1018E0004FF0004143F1000300F0004043EA0000E4
:1018F0007047F9D35708D0E746EA064613F1400F80
:101900004FEA16461FDD13F1200FDFBF16430A46CC
:10191000002120335B42BED0C3F1200746EA0646D1
:1019200002FA07F74FEA164646EA0706C3F1200710
:1019300022FA03F201FA07F721FA03F14FF000034C
:1019400042EA0702A7E746EA020646EA06464FEAE7
:10195000164646EA0106BCBF46EA0646360C4FF07C
:1019600000034FF000024FF0000194E72DE9804C96
:101970009A46934670B491E8380007C831EA400CA3
:1019800048BF34EA430C03D5FFF7E6FDFFF780FFBD
:10199000F0BCBDE8008C2DE9804C9A46934670B4AB
:1019A00091E8380007C810F0804F08BF13F0804F4F
:1019B00003D100F005F8FFF76BFFF0BCBDE8008C29
:1019C00020F07F4780EA030023F07F4C07EB0C03F5
:1019D000A3F57C5300F00040A3F1FE0392F0000F4A
:1019E00000F0B38095F0000F00F077802DE90149F9
:1019F0004FEA11404FEA144621EA004800FB06FC7A
:101A000024EA064708FB06F607FB08F800FB07F781
:101A100018EB06484CEB164C4FEA124B18EB0748F4
:101A20004FEA15464CEB174022EA0B4E0BFB06FC27
:101A300025EA06470EFB06F607FB0EFE0BFB07F733
:101A40001EEB064E4CEB164C4FF000061EEB074EFD
:101A50004CEB174B18EB0B0840F1000018EB0E0B8A
:101A600058EB000840F100008F1A4FF000013CBF16
:101A7000C943661B14BFB5EB040C00213CBFC9432E
:101A8000F61B4FEA17444EEA8E0E27EA04454FEA4A
:101A90001C4704FB07622CEA074C05FB07F70CFB0D
:101AA00005F604FB0CFC16EB074642EB174216EB5F
:101AB0000C4642EB1C421BEB060658EB020241416E
:101AC00046EA9E0601D5BDE80189B619524141EBAF
:101AD0000101A3F10103BDE801894FEA14454FEA72
:101AE000114724EA054621EA074C05FB07F406FBEB
:101AF00007F70CFB06F105FB0CFC11EB074144EB6F
:101B000017444FEA124711EB0C4144EB1C4422EA04
:101B1000074C05FB07F206FB07F70CFB06F605FB77
:101B20000CFC16EB074642EB174216EB0C4642EB59
:101B30001C456A1854F1000148BF7047B61952415C
:101B400041EB0101A3F10103704795F0000F37D07D
:101B50004FEA11424FEA144721EA024624EA074CB1
:101B600002FB07F106FB07F70CFB06F402FB0CFC7B
:101B700014EB074441EB17414FEA154714EB0C44B3
:101B800041EB1C4125EA074C02FB07F506FB07F772
:101B90000CFB06F602FB0CFC16EB074645EB174563
:101BA00016EB0C4645EB1C42121951F1000148BFDF
:101BB0007047B619524141EB0101A3F1010370478F
:101BC0004FEA14454FEA114724EA054621EA074C3B
:101BD00005FB07F106FB07F70CFB06F24FF00006CA
:101BE00005FB0CFC12EB074241EB174112EB0C42D8
:101BF00051EB1C4148BF7047921841EB0101A3F122
:101C00000103704700BFFEE77047000070B504464F
:101C1000B3F5804F13D1D1E9000540EA05108D6876
:101C200040EA05208D6928438D8940EA054054F833
:101C30002250064E3540284344F8220003E06FF05E
:101C4000704044F82200002070BD00000000F0CF7A
:101C500070B50246086852F8200020F001000E68B6
:101C600042F826008868082801D1402300E00023BC
:101C7000486818438E683043CE6830430E6930435D
:101C80004E693043CE6930430E6A30434E6A30436A
:101C90008E6A3043CE6A30430E6B40EA0604886990
:101CA0000443486B0443074D45F4806545F4E02543
:101CB000086852F82000A84320430E6842F8260026
:101CC000002070BD7FFB080010B50346D1E9000479
:101CD00040EA04108C6840EA04208C8940EA0444FD
:101CE000088A401E44EA0054087D801E44EA0060D1
:101CF0008C692043541C53F8244004F04044204392
:101D0000541C43F82400002010BD000070B50446A8
:101D1000002594F82100022803D00420A0630125A7
:101D2000C1E02068006820F00E002168086020688B
:101D3000006820F00100216808605C492068884242
:101D400052D95A4978392068884201D1012047E0A8
:101D5000564964392068884201D1102040E0534937
:101D600050392068884201D1801539E04F493C390B
:101D70002068884201D1801432E04C49283920681B
:101D8000884202D14FF480302AE048491439206853
:101D9000884202D14FF4801022E0444920688842F2
:101DA00001D140041CE042492068884201D1012051
:101DB00016E03F4914312068884201D110200FE01D
:101DC0003B4928312068884201D1801508E0384914
:101DD0003C312068884201D1801401E04FF480300A
:101DE0003349091F086051E030497839206888423A
:101DF00001D1012047E02D4964392068884201D192
:101E0000102040E0294950392068884201D18015CE
:101E100039E026493C392068884201D1801432E0FB
:101E2000224928392068884202D14FF480302AE0C4
:101E30001E4914392068884202D14FF4801022E0F4
:101E40001A492068884201D140041CE018492068E2
:101E5000884201D1012016E01549143120688842DA
:101E600001D110200FE0124928312068884201D1A9
:101E7000801508E00E493C312068884201D1801469
:101E800001E04FF48030094980394860012084F82E
:101E9000210000BF002084F8200000BF606B10B15B
:101EA0002046616B8847284670BD000080000240D4
:101EB000080402402DE9F847024600239C467BE1D6
:101EC0004FF0010808FA03F4D1F8008008EA040092
:101ED000A0427DD1DFF8F4A2D1F80480A8EB0A0972
:101EE000D0453AD014DCB8F1030F50D009DCB8F17A
:101EF000000F31D0B8F1010F1CD0B8F1020F49D159
:101F000020E0B8F1110F18D0B8F1120F42D11EE045
:101F1000B9F5881F25D006DCB9F5803F20D0B9F58A
:101F2000801F37D11AE0B9F5001F18D0B9F5041F8A
:101F300030D117E0D1F80CC02DE0D1F80C8008F1B9
:101F4000040C28E0D1F80C8008F1080C23E0D1F84B
:101F50000C8008F10C0C1EE000BF00BF00BF00BFEA
:101F600000BF00BFD1F80880B8F1000F02D14FF0D8
:101F7000040C0BE0D1F80880B8F1010F03D14FF049
:101F8000080C146102E04FF0080C546103E04FF0BC
:101F9000000C00E000BF00BFFF2801D8904601E020
:101FA00002F104084646FF2802D84FEA830803E0FE
:101FB000A3F108084FEA88084746D6F800804FF09A
:101FC0000F0909FA07F928EA09080CFA07F900E0ED
:101FD0007AE048EA0908C6F80080D1F8048008F0E1
:101FE0008058B8F1805F6FD100BFDFF8E481D8F886
:101FF000188048F00108DFF8D891C9F81880C84661
:10200000D8F8188008F00108CDF8008000BF00BFA4
:102010004FEAB9384FEA930958F829504FEA8378C4
:102020004FEA18794FF00F0808FA09F825EA080571
:10203000DFF8A081424502D14FF0000824E0DFF82C
:102040009881424502D14FF001081DE0DFF88C81F4
:10205000424502D14FF0020816E0DFF88481424584
:1020600002D14FF003080FE0DFF87881424502D13A
:102070004FF0040808E0DFF87081424502D14FF0CC
:10208000050801E04FF006084FEA83794FEA197915
:1020900008FA09F848EA0505DFF850814FEA930984
:1020A00048F82950D1F8048008F48038B8F5803F0A
:1020B0000BD1DFF83C81D8F8008048EA0008DFF84F
:1020C0003091C9F800800AE075E0DFF82481D8F883
:1020D000008028EA0008DFF81891C9F80080D1F8DC
:1020E000048008F40038B8F5003F0ED1DFF8008115
:1020F00008F10408D8F8008048EA0008DFF8F090FA
:1021000009F10409C9F800800DE0DFF8E48008F166
:102110000408D8F8008028EA0008DFF8D49009F114
:102120000409C9F80080D1F8048008F48018B8F5D3
:10213000801F0ED1DFF8B88008F10808D8F80080B9
:1021400048EA0008DFF8A89009F10809C9F80080FA
:102150000DE0DFF89C8008F10808D8F8008028EA34
:102160000008DFF88C9009F10809C9F80080D1F85F
:10217000048008F40018B8F5001F0ED1DFF8708055
:1021800008F10C08D8F8008048EA0008DFF86090F1
:1021900009F10C09C9F800800DE0DFF8548008F15E
:1021A0000C08D8F8008028EA0008DFF8449009F10C
:1021B0000C09C9F800805B1CD1F8008028FA03F8EC
:1021C000B8F1000F7FF47CAEBDE8F8870000111075
:1021D0000010024000080140000C014000100140C6
:1021E0000014014000180140001C0140080001409B
:1021F00000040140024693680B400BB1012000E04F
:102200000020704710B5C26821EA020302EA010407
:1022100043EA0443036110BD0AB1016101E00B040C
:1022200003617047014800687047000010000020FB
:1022300010B50848006840F0100006490860052005
:1022400000F080F80F2000F007F800F02BF80020D5
:1022500010BD00000020024070B504460E48007812
:102260004FF47A71B1FBF0F00C490968B1FBF0F55D
:10227000284600F073FC08B1012070BD102C07D275
:1022800000222146501E00F01EF80548046001E0BF
:102290000120F2E70020F0E71800002000000020F5
:1022A00014000020704701460846002809DB00F0B2
:1022B0001F0301229A4043099B0003F1E023C3F866
:1022C000002100BF70472DE9F05F80460D4616469D
:1022D000002701F079F9074639462A46334601F0CE
:1022E0000700C0F1070ABAF1040F02D94FF0040A3F
:1022F00001E0C0F1070AD14600F1040ABAF1070F64
:1023000002D24FF0000A01E0A0F1030AD4464FF0D8
:10231000010A0AFA09FAAAF1010A0AEA020A0AFA01
:102320000CFA4FF0010B0BFA0CFBABF1010B0BEAB3
:10233000030B4AEA0B042146404601F04DF9BDE883
:10234000F09F000000BF00F00702064B19684FF62F
:10235000FF031940044B0B4343EA0221014B196070
:1023600000BF70470CED00E00000FA0570B50446B0
:102370000D460CB9012070BD5A48006800F00700F6
:10238000A8420ED25748006820F00700284355495C
:1023900008600846006800F00700A84201D001204C
:1023A000E9E7207800F0020002281DD1207800F033
:1023B0000400042805D14C48406840F4E0604A49D4
:1023C0004860207800F00800082805D14648406899
:1023D00040F46050444948604348406820F0F000B1
:1023E000A168084340494860207800F0010078B3B4
:1023F0006068012806D13C48006800F4003090B9BC
:102400000120B8E76068022806D13748006800F06C
:10241000007040B90120AEE73348006800F00200C8
:1024200008B90120A7E73048406820F00300616840
:1024300008432D494860FFF7F5FE064609E0FFF71F
:10244000F1FE801B41F28831884202D9032092E7D5
:1024500007E02548406800F00C006168B0EB810F90
:10246000EDD12048006800F00700A8420ED91D48B1
:10247000006820F0070028431A49086008460068F1
:1024800000F00700A84201D0012074E7207800F096
:102490000400042807D11448406820F4E060E16893
:1024A000084311494860207800F00800082808D146
:1024B0000D48406820F46050216940EAC1000A4993
:1024C000486000F03FF808494968C1F30311074A22
:1024D000515CC8400649086006480068FFF7BCFE2A
:1024E000002048E70020024000100240AC7A0008BB
:1024F0000000002014000020014800687047000020
:102500000000002000B5FFF7F7FF04494968C1F358
:102510000221034A515CC84000BD00000010024087
:10252000BC7A000800B5FFF7E7FF04494968C1F32A
:10253000C221034A515CC84000BD000000100240A7
:10254000BC7A0008F0B585B00FF26C0C9CE8E01086
:1025500001A8A0E8E0101CA52D680095002100222C
:10256000002300240020194D696801F00C05F5B125
:10257000042D02D0082D19D101E0154819E001AD54
:10258000C1F38346AC5D01F4803555B10F4D6D68E4
:10259000C5F340451DF805200D4D6543B5FBF2F32D
:1025A00002E00C4D04FB05F3184602E000BF0848AA
:1025B00000BF00BF05B0F0BD02030405060708090F
:1025C0000A0B0C0D0E0F101001020000001002404B
:1025D00000127A0000093D00F8B504460CB901204C
:1025E000F8BD207800F00100002878D0F848406855
:1025F00000F00C0004280CD0F548406800F00C00F6
:10260000082811D1F248406800F48030B0F5803FCE
:102610000AD1EF48006800F4003000285FD06068FD
:1026200000285CD10120DBE700BF6068B0F5803F87
:1026300006D1E748006840F48030E549086028E0AA
:10264000606858B9E248006820F48030E0490860CA
:102650000846006820F4802008601AE06068B0F541
:10266000A02F0BD1DA48006840F48020D8490860D8
:102670000846006840F4803008600AE0D4480068EA
:1026800020F48030D24908600846006820F4802099
:10269000086000BF606888B1FFF7C4FD054606E02A
:1026A000FFF7C0FD401B642801D9032098E7C84804
:1026B000006800F400300028F2D010E0FFF7B2FD0F
:1026C000054606E0FFF7AEFD401B642801D9032054
:1026D00086E7BF48006800F400300028F2D1207877
:1026E00000F00200022857D1B948406800F00C0001
:1026F00050B1B748406800F00C00082818D1B44821
:10270000406800F4803098B9B148006800F00200D9
:1027100020B12069012801D0012061E7AC480068A0
:1027200020F0F800616940EAC100A949086033E07F
:102730002069E8B10120A7490860FFF773FD05464D
:1027400006E0FFF76FFD401B022801D9032047E791
:102750009F48006800F002000028F2D09C48006802
:1027600020F0F800616940EAC1009949086013E06F
:10277000002098490860FFF755FD054606E0FFF781
:1027800051FD401B022801D9032029E79048006829
:1027900000F002000028F2D1207800F0080008289C
:1027A0002DD1A069B8B101208B490860FFF73AFD2F
:1027B000054606E0FFF736FD401B022801D903203D
:1027C0000EE78348406A00F002000028F2D00120A2
:1027D00000F0DAFC13E000207F490860FFF722FDDB
:1027E000054606E0FFF71EFD401B022801D9032025
:1027F000F6E67748406A00F002000028F2D120781F
:1028000000F00400042873D100277148C06900F06B
:10281000805070B900BF6E48C06940F080506C496C
:10282000C8610846C06900F08050009000BF00BF3A
:1028300001276A48006800F48070B0B967480068F2
:1028400040F4807065490860FFF7ECFC054606E03F
:10285000FFF7E8FC401B642801D90320C0E65F486D
:10286000006800F480700028F2D000BFE068012802
:1028700006D15748006A40F001005549086227E038
:10288000E06858B95248006A20F0010050490862D7
:102890000846006A20F00400086219E0E068052894
:1028A0000BD14B48006A40F00400494908620846D1
:1028B000006A40F0010008620AE04548006A20F022
:1028C0000100434908620846006A20F004000862DB
:1028D00000BFE068A0B1FFF7A5FC054609E0FFF7DF
:1028E000A1FC401B41F28831884202D9032077E6DF
:1028F00022E03748006A00F002000028EFD012E022
:10290000FFF790FC054608E0FFF78CFC401B41F206
:102910008831884201D9032062E62D48006A00F020
:1029200002000028F0D1012F05D12948C06920F00C
:1029300080502749C86100BFE069C8B32448406897
:1029400000F00C00082860D0E069022848D100207F
:1029500020490866FFF766FC054606E0FFF762FCC3
:10296000401B022801D903203AE61948006800F00C
:1029700000700028F2D1206AB0F5803F07D11448DA
:10298000406820F40030A168084311494860D4E948
:10299000080108430E49496821F4741108430C49A1
:1029A000486001200B490866FFF73CFC054607E03C
:1029B0003DE0FFF737FC401B022801D903200FE65A
:1029C0000348006800F000700028F2D02FE00000FB
:1029D0000010024000004242800442420070004069
:1029E000002014490866FFF71DFC054606E0FFF7C6
:1029F00019FC401B022801D90320F1E50E480068AC
:102A000000F000700028F2D111E0E069012800D147
:102A1000E6E50948466806F48031206A814204D11F
:102A200006F47011606A814201D00120D8E50020CF
:102A3000D6E50000000042420010024070B5044696
:102A40000E4615461CB1A069B0F5807F01D101206A
:102A500070BD94F8410028B9002084F84000204659
:102A600000F020F804F108012068FFF7F1F8314682
:102A7000A2682068FFF728F92946236BD4E90102F0
:102A8000FFF7C4F8A168206850F8210040F0010069
:102A9000A268216841F82200012084F8410000204A
:102AA000D6E7000010B586B0044600BF1E48406956
:102AB00040F480701C4948610846406900F4807009
:102AC000019000BF00BF00BF0846806940F02000B1
:102AD00088610846806900F02000019000BF00BFB7
:102AE00000BF0846806940F0400088610846806960
:102AF00000F04000019000BF00BF4CF20370029054
:102B000002200390012004900320059002A90748A9
:102B1000FFF7D0F94FF68070029002A90448FFF742
:102B2000C9F906B010BD00000010024000140140B9
:102B300000180140042808D14FF0E021096941F054
:102B400004014FF0E022116107E04FF0E021096934
:102B500021F004014FF0E0221161704770B5044686
:102B60002546681EB0F1807F01D301200FE0681E6A
:102B70004FF0E02148610F214FF0FF3000F02CFDB5
:102B800000204FF0E021886107200861002070BD1F
:102B9000704700002DE9F04704462068056820686A
:102BA000C668206847694FF00008C14605F00F0865
:102BB000B8F1000F0AD105F0200038B106F020006E
:102BC00020B1204600F020FBBDE8F087B8F1000FEF
:102BD00071D007F0010018B906F4907000286AD08F
:102BE00005F0010030B106F4807018B1E06B40F0E0
:102BF0000100E06305F0040030B107F0010018B1F6
:102C0000E06B40F00200E06305F0020030B107F035
:102C1000010018B1E06B40F00400E06305F008002B
:102C200048B106F0200010B907F0010018B1E06BC0
:102C300040F00800E063E06B68B305F0200028B1C5
:102C400006F0200010B1204600F0DEFA206840694E
:102C5000C0F38019E06B00F0080010B9B9F1000F63
:102C600022D0204600F0B0FA2068406900F0400011
:102C7000B0B12068406920F0400021684861606B75
:102C800050B11848616B4863606BFFF73FF810B1B3
:102C9000606B416B88470CE02046FFF779FF08E046
:102CA0002046FFF775FF04E02046FFF771FF002084
:102CB000E06389E7FFE705F0800030B106F08000AF
:102CC00018B1204600F06EFB7EE705F0400030B101
:102CD00006F0400018B1204600F086FA74E700BF05
:102CE00072E70000B531000810B504460CB90120A8
:102CF00010BDA06900B100E000BF94F8390028B908
:102D0000002084F83800204600F028F8242084F8B9
:102D100039002068C06820F400502168C86020464F
:102D200000F0C2FA2068006920F490402168086130
:102D30002068406920F02A00216848612068C06846
:102D400040F400502168C8600020E063202084F82F
:102D5000390084F83A000020CAE7000010B586B0B8
:102D600004465849206888424BD100BF00BF5648EE
:102D7000806940F00400544988610846806900F089
:102D80000400019000BF00BF00BF00BF00BF0846A5
:102D9000806940F0040088610846806900F0040002
:102DA000019000BF00BF00BF00BF00BF08468069A0
:102DB00040F4804088610846806900F480400190BA
:102DC00000BF00BF00BF4815029002200390012001
:102DD00004900320059002A93C48FFF76BF84FF4DC
:102DE000806002900020039002A93848FFF762F843
:102DF0002520FFF758FA032211462520FFF763FA32
:102E00005DE033492068884259D100BF00BF2E4899
:102E1000806940F008002C4988610846806900F00C
:102E20000800019000BF00BF00BF00BF00BF084600
:102E3000806940F0080088610846806900F0080059
:102E4000019000BF00BF00BF00BF00BF0846C069BF
:102E500040F48020C8610846C06900F480200190D9
:102E600000BF00BF00BF08150290022003900020A1
:102E700004900320059002A91648FFF71BF84FF4B1
:102E8000006002900020039004900320059002A9A6
:102E90001048FFF70FF8002211462720FFF713FA1A
:102EA0002720FFF700FA2068C06840F02000216862
:102EB000C8602068C06840F010002168C86006B093
:102EC00010BD000000380140001002400008014021
:102ED00000480040000C01402DE9F84F04460E4622
:102EE000174699464FF0000A94F83A0020285DD121
:102EF00006B117B90120BDE8F88F00BF94F838007B
:102F0000012801D10220F6E7012084F8380000BF33
:102F10000020E063222084F83A00FFF783F982461C
:102F2000A785E785A068B0F5805F04D1206910B956
:102F30000025B04602E035464FF0000800BF0020F3
:102F400084F8380000BF29E05346002220212046A3
:102F5000CDF8009000F056FA08B10320CBE745B950
:102F600020684068C0F30800A8F8000008F10208D3
:102F700011E0A068B0F5805F03D0A06828B920698F
:102F800018B920684068287004E02068406800F0A4
:102F90007F0028706D1CE08D401EE085E08D0028CC
:102FA000D2D1202084F83A000020A4E70220A2E732
:102FB00010B5034693F83A0020282FD101B10AB981
:102FC000012010BD00BF93F83800012801D1022074
:102FD000F7E7012083F8380000BF99629A85DA8507
:102FE0000020D863222083F83A0000BF002083F835
:102FF000380000BF1868C06840F480701C68E0604A
:103000001868406940F001001C6860611868C06879
:1030100040F020001C68E0600020D2E70220D0E7EA
:103020001D4A0168914236D11C49098801F40041CA
:1030300089BB1A49098801F4804171B1184909789E
:103040000A2903D00021154A118024E01349098878
:1030500041F40041114A11801DE0114909780D2900
:1030600006D10E49098841F480410C4A118012E0D2
:103070000B490978094A1288C2F30D02094B995489
:1030800006490988491C054A118011460988C72943
:1030900001DD002111807047003801400C00002044
:1030A0000E000020280000202DE9F84F04460E46AF
:1030B000174699464FF0000A94F8390020285AD153
:1030C00006B117B90120BDE8F88F00BF94F83800A9
:1030D000012801D10220F6E7012084F8380000BF62
:1030E0000020E063212084F83900FFF79BF8824636
:1030F000A784E784A068B0F5805F04D1206910B987
:103100000025B04602E035464FF0000800BF002021
:1031100084F8380000BF1BE053460022802120467F
:10312000CDF8009000F06EF908B10320CBE745B967
:10313000B8F80000C0F308002168486008F10208F0
:1031400003E02878216848606D1CE08C401EE08414
:10315000E08C0028E0D15346002240212046CDF8E3
:10316000009000F04FF908B10320ACE7202084F86C
:1031700039000020A7E70220A5E7704700BFFEE75F
:1031800000BFFEE77047000008B508490968C90894
:103190004FF47A72B1FBF2F14143009100BF00BFDE
:1031A00000994A1E00920029F9D108BD00000020B4
:1031B0007047704770B505466C6A0020E085E08472
:1031C0002046FFF7E5FC70BD0168C96821F49071E5
:1031D0000268D1600168496921F00101026851610A
:1031E000202180F83A10704710B504462068C06866
:1031F00020F040002168C860202084F83900204673
:10320000FFF7BBFF002010BD70B5044694F83A00EC
:10321000222847D1A068B0F5805F0CD1206950B951
:103220000025A66A20684068C0F308003080A06AC4
:10323000801CA06215E0A56A0026A068B0F5805F3A
:1032400003D0A06828B9206918B9206840682870A0
:1032500004E02068406800F07F002870A06A401CED
:10326000A062E08D401E80B2E085C8B92068C068C9
:1032700020F020002168C8602068C06820F48070B9
:103280002168C8602068406920F001002168486119
:10329000202084F83A002046FFF7C2FE002070BDCF
:1032A0000020FCE70220FAE770B5044621680969AE
:1032B00021F44051E2681143226811612269A1683A
:1032C0001143626941EA02052168C96841F20C6252
:1032D000914329432268D1602168496921F44071F2
:1032E000A2691143226851612D4A2168914202D19D
:1032F000FFF718F901E0FFF705F900EBC00101EB5A
:10330000001162689200B1FBF2F100EBC00202EB27
:10331000001263689B00B2FBF3F26423B2FBF3F28A
:1033200002EBC20303EB0212A1EB8201322202EB99
:1033300001116422B1FBF2F101F0F00100EBC002D7
:1033400002EB001263689B00B2FBF3F26423B2FB52
:10335000F3F201EB021200EBC00101EB0011636814
:103360009B00B1FBF3F100EBC00303EB00136668B5
:10337000B600B3FBF6F36426B3FBF6F303EBC30628
:1033800006EB0313A1EB8301322303EB011164234A
:10339000B1FBF3F101F00F0111442268916070BD9F
:1033A00000380140014691F83900212828D1886869
:1033B000B0F5805F0BD1086948B90A6A1088C0F37C
:1033C00008000B685860086A801C086205E00B6AF8
:1033D000581C086218780B685860C88C401E80B270
:1033E000C88458B90868C06820F080000B68D860AD
:1033F0000868C06840F040000B68D8600020704743
:103400000220FCE72DE9F04104460D461746984698
:10341000069E21E0701CF8B12EB1FEF703FFA0EB71
:103420000800B04218D92068C06820F4D070216824
:10343000C8602068406920F00100216848612020B0
:1034400084F8390084F83A0000BF002084F838007E
:1034500000BF0320BDE8F081206800682840A84232
:1034600001D1012000E00020B842D3D00020F1E7D4
:1034700010B50648FFF78EFB00BF01220449034840
:10348000FFF796FD0028F8D110BD0000F0000020E5
:103490000E0000201CB53F4800680068C0F3C00063
:1034A00090B100BF002000903A480068006800908A
:1034B000384800684068009000BF00BF3548006889
:1034C0000068344800684068324800680068C0F30B
:1034D000401020B34FF0FF33012201A92D48FFF720
:1034E000FBFC2D48B0F80008C0F30E0040F2FF715D
:1034F000884215DA9DF804002749B1F80018C1F395
:103500000E01254A50541046B0F80008401C1146E0
:10351000B1F8001860F30E011046A0F800181BE087
:103520001D48B0F800086FF30E001B49A1F8000811
:103530009DF80400B1F80018C1F30E01164A50546A
:103540001046B0F80008401C1146B1F8001860F3AE
:103550000E011046A0F800180E4800680068C0F37D
:103560000010B0B10C48B0F8000820F4004000F59D
:1035700000400949A1F8000800BF0020009005485C
:10358000006800680090034800684068009000BF31
:1035900000BF1CBD88010020C801002000BFFEE75D
:1035A000490050EAC12018BF04204A0D18BF40F05E
:1035B000010040F2FF72B2EB515F08BF40F0020021
:1035C000012808BF0520704702480068C0F30220A8
:1035D000704700000CED00E010B5002804DB0A077E
:1035E000130E054A135406E00A07140E034A00F0AE
:1035F0000F031B1FD45410BD00E400E018ED00E0E1
:1036000030380A2801D2012070470020704700BFDF
:103610007047000070B500250AE0642206A107A0EB
:1036200000F0DEF804460CB9002070BD681CC5B27D
:103630000A2DF2DB0120F8E74F4B00004154000057
:1036400010B54FF47A7205A106A000F0C9F804463F
:103650000CB1012010BD0020FCE70000612B6F6B56
:10366000000000002B2B2B610000000010B5102182
:103670000348FEF7BFFD08B1012010BD0020FCE7A4
:103680000008014000B585B0002001900290039031
:10369000049000BF00BF2A48806940F00400284918
:1036A00088610846806900F00400009000BF00BFF8
:1036B00000BF00BF00BF0846806940F00400886179
:1036C0000846806900F00400009000BF00BF00BF02
:1036D0000846806940F0010088610846806900F072
:1036E0000100009000BF00BF00BF1649486820F0ED
:1036F000E06040F00070486000BF00BF1020019003
:1037000000200290022003900320049001A90E489B
:10371000FEF7D0FB4FF4004001900120029003908F
:103720000320049001A90848FEF7C4FB00BF012252
:10373000D1030548FEF770FD00BF05B000BD0000D5
:1037400000100240000001400008014070B505462D
:103750000D2D2FD2DFE805F0070A0D101316191CE6
:103760001F2225282B004FF4966425E04FF41664A1
:1037700022E04FF496541FE04FF416541CE04FF42F
:10378000615419E04FF4964416E04FF4164413E0E8
:103790004AF2F87410E04FF461440DE04FF49634AF
:1037A0000AE04FF4E13407E04FF4966404E04FF48C
:1037B000613401E0032070BD00BFFFF763FF2046C6
:1037C00000F082FAFFF73CFFFFF724FF06460EB138
:1037D0000120F0E7014805700020ECE724000020FC
:1037E0002DE9F04105460E461446002700F0B8FAD0
:1037F00029460FA000F080FA06B114B90020BDE8F8
:10380000F08110E000F096FA074647B1314638469D
:10381000FCF7FCFE08B10020F1E700F0A1FA641EFD
:10382000012000F0C3FA002CECD10220E7E70000F1
:1038300025730D0A000000007FB50446022C02DB50
:10384000B4F5806F02DD032004B070BD224607A1ED
:103850006846FCF751FD642208A16846FFF7C0FFE7
:1038600005460DB10120EFE70020EDE741542B4163
:10387000445054494D3D2564000000004F4B00006A
:1038800030B591B00446224607A101A8FCF734FDEB
:10389000642208A101A8FFF7A3FF054615B1012086
:1038A00011B030BD0020FBE741542B48454C4C4F34
:1038B0003D2573004F4B000030B585B0054615B16E
:1038C000012D0AD104E00FA104A8FCF715FD07E0C3
:1038D0000DA104A8FCF710FD02E0032005B030BDE7
:1038E00000BF04AA09A16846FCF706FD64220AA1EC
:1038F0006846FFF775FF04460CB10120EEE7002093
:10390000ECE700004F4E00004F46460041542B4C60
:103910004544454E3D2573004F4B000030B587B000
:10392000054615B1012D0AD104E00FA106A8FCF748
:10393000E3FC07E00DA106A8FCF7DEFC02E0032093
:1039400007B030BD00BF06AA09A101A8FCF7D4FC4E
:1039500064220CA101A8FFF743FF04460CB101202B
:10396000EEE70020ECE700004F4E00004F46460017
:1039700041542B4C494E4B50415353454E3D2573BA
:10398000000000004F4B000030B585B0054615B172
:10399000012D0AD104E00FA104A8FCF7ADFC07E05B
:1039A0000DA104A8FCF7A8FC02E0032005B030BD7F
:1039B00000BF04AA09A16846FCF79EFC64220BA183
:1039C0006846FFF70DFF04460CB10120EEE700202A
:1039D000ECE700004F4E00004F46460041542B4D8F
:1039E00041585055543D2573000000004F4B0000D6
:1039F0007FB50446052C1DD2DFE804F003080D1244
:103A0000170018A103A8FCF777FC16E016A103A87D
:103A1000FCF772FC11E015A103A8FCF76DFC0CE0AB
:103A200013A103A8FCF768FC07E012A103A8FCF7A8
:103A300063FC02E0032004B070BD00BF03AA0EA126
:103A40006846FCF759FC64220EA16846FFF7C8FEE1
:103A500005460DB10120EEE7642000F0A7F9002033
:103A6000E9E700004D000000530000004F00000097
:103A7000420000004900000041542B4D4F44453D99
:103A8000257300004F4B000030B591B0044622462C
:103A900007A101A8FCF730FC642208A101A8FFF7E8
:103AA0009FFE054615B1012011B030BD0020FBE797
:103AB00041542B4E414D453D257300004F4B0000B6
:103AC00030B587B0054615B1012D0AD104E00FA12C
:103AD00006A8FCF711FC07E00DA106A8FCF70CFCFA
:103AE00002E0032007B030BD00BF06AA09A101A86B
:103AF000FCF702FC64220CA101A8FFF771FE04464A
:103B00000CB10120EEE70020ECE700004F4E000072
:103B10004F46460041542B534C415645534C454566
:103B200050454E3D257300004F4B0000FEB5054645
:103B3000082D15D2DFE805F00406080A0C0E101255
:103B400001240FE002240DE003240BE0042409E02B
:103B5000052407E0062405E0072403E0082401E02B
:103B60000320FEBD00BF224607A16846FCF7C4FB48
:103B7000642208A16846FFF733FE06460EB1012015
:103B8000EFE70020EDE7000041542B54504C3D2559
:103B9000640000004F4B00002DE9FF4F89B007463D
:103BA0008A4693460D2F2FD2DFE807F0070A0D1043
:103BB0001316191C1F2225282B004FF4966427E0AA
:103BC0004FF4166424E04FF4965421E04FF4165459
:103BD0001EE04FF461541BE04FF4964418E04FF49C
:103BE000164415E04AF2F87412E04FF461440FE015
:103BF0004FF496340CE04FF4E13409E04FF496644E
:103C000006E04FF4613403E003200DB0BDE8F08F0F
:103C100000BFBAF1000F09D0BAF1010F08D0BAF114
:103C2000020F07D0BAF1030F08D105E0052507E020
:103C3000062505E0072503E0082501E00320E4E769
:103C400000BFBBF1000F06D0BBF1010F05D0BBF1E7
:103C5000020F06D103E0002605E0012603E002265C
:103C600001E00320D1E700BF0C9810B1012806D174
:103C700002E04FF0010904E04FF0020901E00320E7
:103C8000C3E700BF2B46224609A103A8CDE900697E
:103C9000FCF732FB64220BA103A8FFF7A1FD8046CD
:103CA000B8F1000F01D00120AFE70020ADE7000020
:103CB00041542B554152543D25642C25642C2564D8
:103CC0002C2564004F4B000010B5044608480949F4
:103CD00008600846446000218160C16001610C21D8
:103CE000416100218161C161FEF7FEFF10BD00004E
:103CF00000480040880100200FB438B505A80090A6
:103D00000A48009A0499FCF7D9FA00200090074865
:103D1000FCF78EFC84B24FF0FF332246034904487F
:103D2000FFF7C2F938BC5DF814FB0000CA09002097
:103D3000880100200948B0F800080121B1EBD03F0C
:103D400009D100200549B1F80018C1F30E01034A5A
:103D50005054104670470020FCE70000C8010020C6
:103D60000748B0F800086FF30E000549A1F80008F5
:103D70000846B0F8000820F40040A1F80008704799
:103D8000C801002010B5044600204FF0E021086172
:103D9000FEF7D0FE2046E11704EB5171C1F3CF01CD
:103DA000014A118010BD00000400002070B50446D7
:103DB0004FF47A7094FBF0F594FBF0F100FB1146A0
:103DC00003E0074800F00EF86D1E002DF9D12EB16A
:103DD0004FF47A7106FB01F000F004F870BD0000AA
:103DE00040420F000146114A12884A434FF0E02337
:103DF0005A6100229A611A46126942F001021A6160
:103E000000BF4FF0E022106900F001021AB100F487
:103E10008032002AF5D04FF0E022126922F0010230
:103E20004FF0E0231A6100229A61704704000020DD
:103E30000A20FFF78BFC04466CB138A0FCF750FA5F
:103E400008E000BF20213C48FEF7DCF900BFC82095
:103E5000FFF7ACFFF5E7FFF7F3FB38A0FFF714FE21
:103E6000044639A0FFF70CFD2044C4B20420FFF73C
:103E70005DFE2044C4B200231A4603210A20FFF746
:103E80008BFE2044C4B20520FFF7D6FC2044C4B208
:103E90000120FFF743FD2044C4B20020FFF70CFDD2
:103EA0002044C4B20120FFF70BFE2044C4B201201D
:103EB000FFF76AFD2044C4B20120FFF799FD2044BA
:103EC000C4B26CB124A0FCF70BFA08E000BF2021BB
:103ED0001948FEF797F900BFC820FFF767FFF5E71D
:103EE000FFF73EFF18E0FFF7C1FBA8B9002000F084
:103EF000D3F80646012E02D11EA0FFF7FDFEFFF704
:103F000019FF05462DB129461FA0FCF7E9F9FFF777
:103F100027FF0A20FFF74AFFE5E7000041544B2D39
:103F20004D5735373920696E6974206661696C6553
:103F300064210D0A00000000000C014041544B2D8B
:103F40004D5735373900000048454C4C4F204154FF
:103F50004B2D4D573537390041544B2D4D57353783
:103F60003920636F6E666967206661696C656421DC
:103F70000D0A000046726F6D2041544B2D4D573590
:103F800037390D0A000000002573000000BF054A04
:103F9000126802F04002002AF9D0C2B2014B1B1D88
:103FA0001A6070470038014000B585B000BF00BFFF
:103FB0003648806940F0400034498861084680698D
:103FC00000F04000009000BF00BF00BF00BF00BF76
:103FD0000846806940F0400088610846806900F02A
:103FE0004000009000BF00BF00BF00BF00BF0846F8
:103FF000806940F0400088610846806900F0400018
:10400000009000BF00BF00BF00BF00BF084680692E
:1040100040F0040088610846806900F004000090C8
:1040200000BF00BF00BF10200190002002900120BF
:1040300003900320049001A91548FDF73BFF0820D9
:10404000019000200290012003900320049001A918
:104050000F48FDF72FFF042001900020029001205F
:1040600003900320049001A90948FDF723FF0120D4
:10407000019000200290022003900320049001A9E7
:104080000448FDF717FF05B000BD00000010024016
:10409000001801400008014070B50446002514B125
:1040A00001202B4908702A480078002834D01021BC
:1040B0002848FEF79FF878B108212648FEF79AF8BD
:1040C00050B104212348FEF795F828B10121224878
:1040D000FEF790F801281FD10A20FFF767FE0020A5
:1040E0001B49087010211B48FEF784F800B9012510
:1040F00008211848FEF77EF800B90225042115486A
:10410000FEF778F800B9032501211348FEF772F88D
:1041100001281BD1042519E010210E48FEF76AF88A
:10412000012813D108210B48FEF764F801280DD1AE
:1041300004210848FEF75EF8012807D1012106484E
:10414000FEF758F810B9012001490870284670BDE3
:1041500019000020001801400008014070B5044615
:10416000002609480588408845430021084603F099
:1041700055F803F0FBF900BF02E004480480761C08
:10418000AE42FAD370BD0000780100200008006C38
:1041900010B5044658488471002C58D1F020564977
:1041A00008804FF4A07048800846808845F210517E
:1041B000884210D14FF430504F4908814FF42850B5
:1041C00048814FF42C5088814FF4F07008804FF4F0
:1041D000487048801AE04848808841F66311884258
:1041E0000DD12C20444908812B2048812A20888128
:1041F0004FF4F07008804FF44870488006E02C209F
:104200003D4908812A2048812B2088813A488088AE
:1042100045F21031884205D03748808847F29671C0
:10422000884206D14FF4A070334908804FF4F070F3
:1042300048803148808849F60601884258D14FF4B9
:10424000F0702D4908804FF44870488050E04FF4DA
:10425000A07029490880F02048800846808845F2EF
:104260001051884210D14FF43050234908814FF447
:10427000285048814FF42C5088814FF448700880B2
:104280004FF4F070488020E01B48808841F66311AD
:10429000884205D01848808849F6060188420DD129
:1042A0002C20154908812A2048812B2088814FF431
:1042B000487008804FF4F070488006E02C200E49CA
:1042C00008812A2048812B2088810B48808845F26C
:1042D0001031884205D00848808847F2967188429C
:1042E00006D14FF4F070044908804FF4A070488064
:1042F000002002F075FE10BD7801002070B5054663
:104300000E4614463146284602F088FF03F02EF987
:1043100001490C8070BD00000008006C10B5CF2072
:1043200003F018F9002003F009F9C12003F006F9A1
:10433000302003F003F9ED2003F00CF9642003F0C2
:10434000FDF8032003F0FAF8122003F0F7F88120BB
:1043500003F0F4F8E82003F0FDF8852003F0EEF810
:10436000102003F0EBF87A2003F0E8F8CB2003F0FC
:10437000F1F8392003F0E2F82C2003F0DFF80020F8
:1043800003F0DCF8342003F0D9F8022003F0D6F86B
:10439000F72003F0DFF8202003F0D0F8EA2003F044
:1043A000D9F8002003F0CAF8002003F0C7F8C020B5
:1043B00003F0D0F81B2003F0C1F8C12003F0CAF8C5
:1043C000012003F0BBF8C52003F0C4F8302003F04F
:1043D000B5F8302003F0B2F8C72003F0BBF8B720DF
:1043E00003F0ACF8362003F0B5F8482003F0A6F847
:1043F0003A2003F0AFF8552003F0A0F8B12003F005
:10440000A9F8002003F09AF81A2003F097F8B620D4
:1044100003F0A0F80A2003F091F8A22003F08EF830
:10442000F22003F097F8002003F088F8262003F02C
:1044300091F8012003F082F8E02003F08BF80F20C0
:1044400003F07CF82A2003F079F8282003F076F8AE
:10445000082003F073F80E2003F070F8082003F032
:104460006DF8542003F06AF8A92003F067F84320A0
:1044700003F064F80A2003F061F80F2003F05EF8FF
:10448000002003F05BF8002003F058F8002003F050
:1044900055F8002003F052F8E12003F05BF800200B
:1044A00003F04CF8152003F049F8172003F046F804
:1044B000072003F043F8112003F040F8062003F032
:1044C0003DF82B2003F03AF8562003F037F83C2053
:1044D00003F034F8052003F031F8102003F02EF833
:1044E0000F2003F02BF83F2003F028F83F2003F0C3
:1044F00025F80F2003F022F82B2003F02BF80020E2
:1045000003F01CF8002003F019F8012003F016F85E
:104510003F2003F013F82A2003F01CF8002003F0DA
:104520000DF8002003F00AF8002003F007F8EF2050
:1045300003F004F8112003F00DF87820FFF736FCA3
:10454000292003F007F810BD10B5FF2003F002F892
:10455000FF2002F0F3FF982002F0F0FF062002F0A7
:10456000EDFFBC2002F0F6FF012002F0E7FF0F2074
:1045700002F0E4FF612002F0E1FFFF2002F0DEFF25
:10458000012002F0DBFF012002F0D8FF0B2002F037
:10459000D5FF102002F0D2FF372002F0CFFF6320BA
:1045A00002F0CCFFFF2002F0C9FFFF2002F0C6FF9F
:1045B000012002F0C3FF012002F0C0FF002002F042
:1045C000BDFF002002F0BAFFFF2002F0B7FF52202B
:1045D00002F0B4FF012002F0B1FF002002F0AEFFB4
:1045E000402002F0ABFFBD2002F0B4FF012002F03A
:1045F000A5FF232002F0A2FF452002F09FFF6720C5
:1046000002F09CFF012002F099FF232002F096FFA8
:10461000452002F093FF672002F090FFBE2002F0D9
:1046200099FF002002F08AFF012002F087FFAB20F3
:1046300002F084FF602002F081FF222002F07EFF62
:10464000222002F07BFF222002F078FF222002F0DD
:1046500075FF222002F072FFC72002F07BFF362098
:1046600002F06CFFED2002F075FF7F2002F066FF84
:104670000F2002F063FFC02002F06CFF0F2002F059
:104680005DFF0B2002F05AFF0A2002F057FFFC20CA
:1046900002F060FF082002F051FFDF2002F05AFF15
:1046A000002002F04BFF002002F048FF002002F043
:1046B00045FF002002F042FF002002F03FFF2020D3
:1046C00002F03CFFF32002F045FF742002F036FFB9
:1046D000B42002F03FFF002002F030FF002002F083
:1046E0002DFF002002F02AFFF72002F033FF822086
:1046F00002F024FFB12002F02DFF002002F01EFF87
:10470000132002F01BFF132002F018FFF22002F02A
:1047100021FF802002F012FF042002F00FFF402052
:1047200002F00CFF282002F009FFC12002F012FF66
:10473000172002F003FF882002F000FF882002F01B
:10474000FDFE202002F0FAFEE02002F003FF002030
:1047500002F0F4FE0A2002F0F1FE122002F0EEFE5A
:10476000102002F0EBFE0E2002F0E8FE202002F006
:10477000E5FECC2002F0E2FE072002F0DFFE06207C
:1047800002F0DCFE0B2002F0D9FE0E2002F0D6FE75
:104790000F2002F0D3FE0D2002F0D0FE152002F013
:1047A000CDFE102002F0CAFE002002F0C7FEE1207C
:1047B00002F0D0FE002002F0C1FE0B2002F0BEFE8F
:1047C000132002F0BBFE0D2002F0B8FE0E2002F016
:1047D000B5FE1B2002F0B2FE712002F0AFFE0620F3
:1047E00002F0ACFE062002F0A9FE0A2002F0A6FEAE
:1047F0000F2002F0A3FE0E2002F0A0FE0F2002F018
:104800009DFE152002F09AFE0C2002F097FE00207B
:1048100002F094FE2A2002F09DFE002002F08EFE9F
:10482000002002F08BFE012002F088FEDF2002F063
:1048300085FE2B2002F08EFE002002F07FFE00207D
:1048400002F07CFE032002F079FE1F2002F076FECB
:104850003A2002F07FFE552002F070FE362002F072
:1048600079FE002002F06AFE112002F073FE78202B
:10487000FFF79CFA292002F06DFE1420FFF796FA4C
:104880002C2002F067FE10BD10B5ED2002F062FE94
:10489000012002F053FEFE2002F050FEEE2002F056
:1048A00059FEDE2002F04AFE212002F047FEF120F0
:1048B00002F050FE012002F041FEDF2002F04AFE2D
:1048C000102002F03BFEC42002F044FE8F2002F0D4
:1048D00035FEC62002F03EFE002002F02FFEE22050
:1048E00002F02CFEE22002F029FEE22002F026FE79
:1048F000BF2002F02FFEAA2002F020FEB02002F01E
:1049000029FE0D2002F01AFE002002F017FE0D20F5
:1049100002F014FE002002F011FE112002F00EFE43
:10492000002002F00BFE192002F008FE002002F029
:1049300005FE212002F002FE002002F0FFFD2D20E6
:1049400002F0FCFD002002F0F9FD3D2002F0F6FD32
:10495000002002F0F3FD5D2002F0F0FD002002F0E7
:10496000EDFD5D2002F0EAFD002002F0E7FDB12040
:1049700002F0F0FD802002F0E1FD002002F0DEFDFB
:104980008B2002F0DBFD002002F0D8FD962002F023
:10499000D5FD002002F0D2FDB22002F0DBFD0020A8
:1049A00002F0CCFD002002F0C9FD022002F0C6FD9D
:1049B000002002F0C3FD032002F0C0FD002002F041
:1049C000BDFDB32002F0C6FD002002F0B7FD0020BF
:1049D00002F0B4FD002002F0B1FD002002F0AEFDB7
:1049E000002002F0ABFD002002F0A8FD002002F044
:1049F000A5FD002002F0A2FD002002F09FFD002096
:104A000002F09CFD002002F099FD002002F096FDCE
:104A1000002002F093FD002002F090FD002002F043
:104A20008DFD002002F08AFD002002F087FD0020AD
:104A300002F084FD002002F081FD002002F07EFDE6
:104A4000002002F07BFD002002F078FD002002F043
:104A500075FD002002F072FDB42002F07BFD8B207A
:104A600002F06CFD002002F069FD962002F066FD68
:104A7000002002F063FDA12002F060FD002002F0A2
:104A80005DFDB52002F066FD022002F057FD00201A
:104A900002F054FD032002F051FD002002F04EFD13
:104AA000042002F04BFD002002F048FDB62002F089
:104AB00051FD002002F042FD002002F03FFDB72032
:104AC00002F048FD002002F039FD002002F036FD22
:104AD0003F2002F033FD002002F030FD5E2002F0A6
:104AE0002DFD002002F02AFD642002F027FD0020A9
:104AF00002F024FD8C2002F021FD002002F01EFDBA
:104B0000AC2002F01BFD002002F018FDDC2002F0BA
:104B100015FD002002F012FD702002F00FFD0020B4
:104B200002F00CFD902002F009FD002002F006FDCD
:104B3000EB2002F003FD002002F000FDDC2002F07B
:104B4000FDFC002002F0FAFCB82002F003FD00207A
:104B500002F0F4FC002002F0F1FC002002F0EEFC78
:104B6000002002F0EBFC002002F0E8FC002002F044
:104B7000E5FC002002F0E2FC002002F0DFFCBA209D
:104B800002F0E8FC242002F0D9FC002002F0D6FC60
:104B9000002002F0D3FC002002F0D0FCC12002F083
:104BA000D9FC202002F0CAFC002002F0C7FC5420EF
:104BB00002F0C4FC002002F0C1FCFF2002F0BEFCA9
:104BC000002002F0BBFCC22002F0C4FC0A2002F06C
:104BD000B5FC002002F0B2FC042002F0AFFC002083
:104BE00002F0ACFCC32002F0B5FC3C2002F0A6FCB5
:104BF000002002F0A3FC3A2002F0A0FC002002F00A
:104C00009DFC392002F09AFC002002F097FC37202E
:104C100002F094FC002002F091FC3C2002F08EFC9B
:104C2000002002F08BFC362002F088FC002002F00D
:104C300085FC322002F082FC002002F07FFC2F2055
:104C400002F07CFC002002F079FC2C2002F076FCC3
:104C5000002002F073FC292002F070FC002002F01A
:104C60006DFC262002F06AFC002002F067FC242084
:104C700002F064FC002002F061FC242002F05EFCE3
:104C8000002002F05BFC232002F058FC002002F020
:104C900055FC3C2002F052FC002002F04FFC362074
:104CA00002F04CFC002002F049FC322002F046FCED
:104CB000002002F043FC2F2002F040FC002002F014
:104CC0003DFC2C2002F03AFC002002F037FC2920A9
:104CD00002F034FC002002F031FC262002F02EFC11
:104CE000002002F02BFC242002F028FC002002F01F
:104CF00025FC242002F022FC002002F01FFC2320CF
:104D000002F01CFC002002F019FCC42002F022FC7E
:104D1000622002F013FC002002F010FC052002F0DB
:104D20000DFC002002F00AFC842002F007FC0020A9
:104D300002F004FCF02002F001FC002002F0FEFB77
:104D4000182002F0FBFB002002F0F8FBA42002F088
:104D5000F5FB002002F0F2FB182002F0EFFB002030
:104D600002F0ECFB502002F0E9FB002002F0E6FB31
:104D70000C2002F0E3FB002002F0E0FB172002F021
:104D8000DDFB002002F0DAFB952002F0D7FB0020CB
:104D900002F0D4FBF32002F0D1FB002002F0CEFBA6
:104DA000E62002F0CBFB002002F0C8FBC52002F099
:104DB000D1FB322002F0C2FB002002F0BFFB4420F6
:104DC00002F0BCFB002002F0B9FB652002F0B6FB4C
:104DD000002002F0B3FB762002F0B0FB002002F0CE
:104DE000ADFB882002F0AAFB002002F0A7FBC62042
:104DF00002F0B0FB202002F0A1FB002002F09EFB9D
:104E0000172002F09BFB002002F098FB012002F02B
:104E100095FB002002F092FBC72002F09BFB0020D4
:104E200002F08CFB002002F089FB002002F086FBE0
:104E3000002002F083FBC82002F08CFB002002F06F
:104E40007DFB002002F07AFB002002F077FB0020BF
:104E500002F074FBC92002F07DFB002002F06EFB23
:104E6000002002F06BFB002002F068FB002002F043
:104E700065FB002002F062FB002002F05FFB0020D7
:104E800002F05CFB002002F059FB002002F056FB10
:104E9000002002F053FB002002F050FB002002F043
:104EA0004DFB002002F04AFB002002F047FB0020EF
:104EB00002F044FB002002F041FBE02002F04AFB3C
:104EC000162002F03BFB002002F038FB1C2002F011
:104ED00035FB002002F032FB212002F02FFB0020E6
:104EE00002F02CFB362002F029FB002002F026FB0A
:104EF000462002F023FB002002F020FB522002F0AB
:104F00001DFB002002F01AFB642002F017FB0020BA
:104F100002F014FB7A2002F011FB002002F00EFBDD
:104F20008B2002F00BFB002002F008FB992002F01E
:104F300005FB002002F002FBA82002F0FFFA00208F
:104F400002F0FCFAB92002F0F9FA002002F0F6FAB9
:104F5000C42002F0F3FA002002F0F0FACA2002F0B6
:104F6000EDFA002002F0EAFAD22002F0E7FA00207F
:104F700002F0E4FAD92002F0E1FA002002F0DEFAB1
:104F8000E02002F0DBFA002002F0D8FAF32002F071
:104F9000D5FA002002F0D2FAE12002F0DBFA162066
:104FA00002F0CCFA002002F0C9FA1C2002F0C6FA86
:104FB000002002F0C3FA222002F0C0FA002002F022
:104FC000BDFA362002F0BAFA002002F0B7FA452006
:104FD00002F0B4FA002002F0B1FA522002F0AEFA68
:104FE000002002F0ABFA642002F0A8FA002002F0E0
:104FF000A5FA7A2002F0A2FA002002F09FFA8B2094
:1050000002F09CFA002002F099FA992002F096FA38
:10501000002002F093FAA82002F090FA002002F09B
:105020008DFAB92002F08AFA002002F087FAC42033
:1050300002F084FA002002F081FACA2002F07EFA1F
:10504000002002F07BFAD22002F078FA002002F071
:1050500075FAD82002F072FA002002F06FFAE02010
:1050600002F06CFA002002F069FAF32002F066FA0E
:10507000002002F063FAE22002F06CFA052002F050
:105080005DFA002002F05AFA0B2002F057FA0020D5
:1050900002F054FA1B2002F051FA002002F04EFAFE
:1050A000342002F04BFA002002F048FA442002F0CB
:1050B00045FA002002F042FA4F2002F03FFA0020A9
:1050C00002F03CFA612002F039FA002002F036FAD0
:1050D000792002F033FA002002F030FA882002F042
:1050E0002DFA002002F02AFA972002F027FA002079
:1050F00002F024FAA62002F021FA002002F01EFAA3
:10510000B72002F01BFA002002F018FAC22002F0C9
:1051100015FA002002F012FAC72002F00FFA002060
:1051200002F00CFAD12002F009FA002002F006FA8F
:10513000D62002F003FA002002F000FADD2002F08F
:10514000FDF9002002F0FAF9F32002F0F7F900204F
:1051500002F0F4F9E32002F0FDF9052002F0EEF987
:10516000002002F0EBF90A2002F0E8F9002002F03A
:10517000E5F91C2002F0E2F9002002F0DFF933200B
:1051800002F0DCF9002002F0D9F9442002F0D6F94F
:10519000002002F0D3F9502002F0D0F9002002F0F4
:1051A000CDF9622002F0CAF9002002F0C7F9782098
:1051B00002F0C4F9002002F0C1F9882002F0BEF923
:1051C000002002F0BBF9972002F0B8F9002002F0AD
:1051D000B5F9A62002F0B2F9002002F0AFF9B7202D
:1051E00002F0ACF9002002F0A9F9C22002F0A6F901
:1051F000002002F0A3F9C72002F0A0F9002002F07D
:105200009DF9D12002F09AF9002002F097F9D520FB
:1052100002F094F9002002F091F9DD2002F08EF9FD
:10522000002002F08BF9F32002F088F9002002F050
:1052300085F9E42002F08EF9012002F07FF90020C8
:1052400002F07CF9012002F079F9002002F076F9F1
:10525000022002F073F9002002F070F92A2002F017
:105260006DF9002002F06AF93C2002F067F9002095
:1052700002F064F94B2002F061F9002002F05EF9BF
:105280005D2002F05BF9002002F058F9742002F072
:1052900055F9002002F052F9842002F04FF9002065
:1052A00002F04CF9932002F049F9002002F046F98F
:1052B000A22002F043F9002002F040F9B32002F0EE
:1052C0003DF9002002F03AF9BE2002F037F9002043
:1052D00002F034F9C42002F031F9002002F02EF976
:1052E000CD2002F02BF9002002F028F9D32002F0A3
:1052F00025F9002002F022F9DD2002F01FF900203C
:1053000002F01CF9F32002F019F9002002F016F95E
:10531000E52002F01FF9002002F010F9002002F051
:105320000DF9002002F00AF9002002F007F902202E
:1053300002F004F9002002F001F9292002F0FEF841
:10534000002002F0FBF83C2002F0F8F8002002F008
:10535000F5F84B2002F0F2F8002002F0EFF85D20A3
:1053600002F0ECF8002002F0E9F8742002F0E6F810
:10537000002002F0E3F8842002F0E0F8002002F0C0
:10538000DDF8932002F0DAF8002002F0D7F8A2202E
:1053900002F0D4F8002002F0D1F8B32002F0CEF8E9
:1053A000002002F0CBF8BE2002F0C8F8002002F086
:1053B000C5F8C42002F0C2F8002002F0BFF8CD20EA
:1053C00002F0BCF8002002F0B9F8D32002F0B6F8E1
:1053D000002002F0B3F8DC2002F0B0F8002002F068
:1053E000ADF8F32002F0AAF8002002F0A7F8E620BA
:1053F00002F0B0F8112002F0A1F8002002F09EF8AF
:10540000342002F09BF8002002F098F8562002F0B9
:1054100095F8002002F092F8762002F08FF8002034
:1054200002F08CF8772002F089F8002002F086F86C
:10543000662002F083F8002002F080F8882002F055
:105440007DF8002002F07AF8992002F077F8002029
:1054500002F074F8BB2002F071F8002002F06EF840
:10546000992002F06BF8002002F068F8662002F044
:1054700065F8002002F062F8552002F05FF8002085
:1054800002F05CF8552002F059F8002002F056F8BE
:10549000452002F053F8002002F050F8432002F0BB
:1054A0004DF8002002F04AF8442002F047F80020AE
:1054B00002F044F8E72002F04DF8322002F03EF806
:1054C000002002F03BF8552002F038F8002002F0EE
:1054D00035F8762002F032F8002002F02FF866202E
:1054E00002F02CF8002002F029F8672002F026F8DC
:1054F000002002F023F8672002F020F8002002F0DC
:105500001DF8872002F01AF8002002F017F8992001
:1055100002F014F8002002F011F8BB2002F00EF89F
:10552000002002F00BF8992002F008F8002002F0A9
:1055300005F8772002F002F8002001F0FFFF442078
:1055400001F0FCFF002001F0F9FF562001F0F6FF0A
:10555000002001F0F3FF232001F0F0FF002001F014
:10556000EDFF332001F0EAFF002001F0E7FF4520C6
:1055700001F0E4FF002001F0E1FFE82001F0EAFF84
:10558000002001F0DBFF002001F0D8FF992001F09E
:10559000D5FF002001F0D2FF872001F0CFFF0020CF
:1055A00001F0CCFF882001F0C9FF002001F0C6FF08
:1055B000772001F0C3FF002001F0C0FF662001F05A
:1055C000BDFF002001F0BAFF882001F0B7FF0020E6
:1055D00001F0B4FFAA2001F0B1FF002001F0AEFFFE
:1055E000BB2001F0ABFF002001F0A8FF992001F0E3
:1055F000A5FF002001F0A2FF662001F09FFF002020
:1056000001F09CFF552001F099FF002001F096FF6A
:10561000552001F093FF002001F090FF442001F09D
:105620008DFF002001F08AFF442001F087FF002059
:1056300001F084FF552001F081FF002001F07EFF82
:10564000E92001F087FFAA2001F078FF002001F097
:1056500075FF002001F072FF002001F06FFF0020B5
:1056600001F078FFAA2001F069FFCF2001F072FF5E
:10567000002001F063FF002001F060FF002001F036
:105680005DFF002001F05AFF002001F057FF0020CD
:1056900001F054FF002001F051FF002001F04EFF07
:1056A000002001F04BFF002001F048FF002001F036
:1056B00045FF002001F042FF002001F03FFF0020E5
:1056C00001F03CFF002001F039FF002001F036FF1F
:1056D000002001F033FFF02001F03CFF002001F03A
:1056E0002DFF502001F02AFF002001F027FF0020AD
:1056F00001F024FF002001F021FFF32001F02AFF38
:10570000002001F01BFFF92001F024FF062001F02A
:1057100015FF102001F012FF292001F00FFF0020DB
:1057200001F00CFF3A2001F015FF552001F006FFB3
:10573000112001F00FFF6420FEF738FB292001F053
:1057400009FF352001F006FF002001F0F7FE51208F
:1057500001F000FFFF2001F0F1FE532001F0FAFEFE
:105760002C2001F0EBFE552001F0F4FE822001F028
:10577000E5FE2C2001F0EEFE10BD10B555214FF4D2
:10578000704001F0FDFEAA214FF2010001F0F8FE89
:1057900052214FF2020001F0F3FE08214FF2030004
:1057A00001F0EEFE01214FF2040001F0E9FE0D21AF
:1057B0004FF4304001F0E4FE0D214BF2010001F006
:1057C000DFFE0D214BF2020001F0DAFE34214FF42E
:1057D000364001F0D5FE34214BF2016001F0D0FEDD
:1057E00034214BF2026001F0CBFE0D214FF4314029
:1057F00001F0C6FE0D214BF2011001F0C1FE0D219A
:105800004BF2021001F0BCFE34214FF4374001F09E
:10581000B7FE34214BF2017001F0B2FE34214BF29D
:10582000027001F0ADFE00214FF4324001F0A8FEFD
:1058300000214BF2012001F0A3FE00214BF20220D7
:1058400001F09EFE24214FF4384001F099FE2421FE
:105850004BF6010001F094FE24214BF6020001F00A
:105860008FFE01214FF43F4001F08AFE0F214FF4DB
:10587000334001F085FE0F214BF2013001F080FE34
:105880000F214BF2023001F07BFE34214FF43940FE
:1058900001F076FE34214BF6011001F071FE342147
:1058A0004BF6021001F06CFE08214FF4354001F078
:1058B00067FE08214BF2015001F062FE08214BF215
:1058C000025001F05DFE03214FF4424001F058FE0A
:1058D00024214FF43A4001F053FE24214BF60120DD
:1058E00001F04EFE24214BF6022001F049FE00217A
:1058F0004FF43C4001F044FE78214BF6014001F0AA
:105900003FFE00214BF6024001F03AFE00214FF429
:105910003D4001F035FE78214BF6015001F030FE9C
:1059200000214BF6025001F02BFE00214FF43E40C7
:1059300001F026FE64214BF6016001F021FE0021FA
:105940004FF4514001F01CFE33214DF2011001F0E3
:1059500017FE00214DF2021001F012FE34214DF22B
:10596000031001F00DFE00214DF2041001F008FEBD
:105970003A214DF2051001F003FE00214DF2061010
:1059800001F0FEFD4A214DF2071001F0F9FD002162
:105990004DF2081001F0F4FD5C214DF2091001F008
:1059A000EFFD00214DF20A1001F0EAFD81214DF2D8
:1059B0000B1001F0E5FD00214DF20C1001F0E0FDAF
:1059C000A6214DF20D1001F0DBFD00214DF20E106D
:1059D00001F0D6FDE5214DF20F1001F0D1FD0121BE
:1059E0004DF2101001F0CCFD13214DF2111001F019
:1059F000C7FD01214DF2121001F0C2FD54214DF2FC
:105A0000131001F0BDFD01214DF2141001F0B8FD9D
:105A100082214DF2151001F0B3FD01214DF2161057
:105A200001F0AEFDCA214DF2171001F0A9FD0221CF
:105A30004DF2181001F0A4FD00214DF2191001F0F3
:105A40009FFD02214DF21A1001F09AFD01214DF245
:105A50001B1001F095FD02214DF21C1001F090FD8C
:105A600034214DF21D1001F08BFD02214DF21E106C
:105A700001F086FD67214DF21F1001F081FD02212A
:105A80004DF2201001F07CFD84214DF2211001F037
:105A900077FD02214DF2221001F072FDA4214DF29A
:105AA000231001F06DFD02214DF2241001F068FD7C
:105AB000B7214DF2251001F063FD02214DF22610B1
:105AC00001F05EFDCF214DF2271001F059FD0221BA
:105AD0004DF2281001F054FDDE214DF2291001F0A5
