:020000040800F2
:10000000600F002079020008E32F0008692E000825
:10001000E12F0008171C00083F3400080000000012
:10002000000000000000000000000000E72F0008B2
:10003000191C000800000000E52F0008E92F000847
:10004000930200089302000893020008930200083C
:10005000930200089302000893020008930200082C
:10006000930200089302000893020008930200081C
:10007000930200089302000893020008930200080C
:1000800093020008930200089302000893020008FC
:1000900093020008930200089302000893020008EC
:1000A0009302000893020008930200084D300008F4
:1000B00093020008930200089302000893020008CC
:1000C00093020008930200089302000893020008BC
:1000D00093020008930200089302000893020008AC
:1000E000930200089302000893020008930200089C
:1000F000930200089302000893020008930200088C
:10010000930200089302000893020008930200087B
:100110001D320008930200089302000893020008B1
:10012000930200089302000893020008930200085B
:1001300000F002F800F090F80AA090E8000C824469
:100140008344AAF10107DA4501D100F085F8AFF246
:10015000090EBAE80F0013F0010F18BFFB1A43F0A5
:1001600001031847F840000018410000103A24BF6E
:1001700078C878C1FAD8520724BF30C830C144BF0C
:1001800004680C607047000000230024002500264E
:10019000103A28BF78C1FBD8520728BF30C148BFEA
:1001A0000B6070476E2900F0C682702900F01F8432
:1001B000662903F04287652903F03F87672903F02A
:1001C0003C87612903F03B8703681B0A28BF41F085
:1001D0008001692900F0C280642900F0BF80752980
:1001E00000F0BC806F2900F0AC83782900F0EB832D
:1001F000E92900F04783E42900F04483F52900F061
:100200004183EF2900F0A983F82900F0EA8303680D
:10021000DB0928BF41F08001632900F0C8827329FF
:1002200000F0CD82E32900F0C987F32900F0CE87E2
:10023000002070471FB501F01BF8040000200021CA
:1002400003F04CFC401C60600020002103F030FCF7
:10025000E0601FBD10B510BD00F0DCFF1146FFF7D8
:10026000E9FF03F087FB01F0B9F803B4FFF7F2FFF1
:1002700003BC01F001F90000094880470948004724
:10028000FEE7FEE7FEE7FEE7FEE7FEE7FEE7FEE746
:10029000FEE7FEE704480549054A064B70470000A3
:1002A0004B3000083101000860090020600F002079
:1002B000600B0020600B00201CB50C46064B7B44F5
:1002C00069460090204600F050FA04460020694636
:1002D00000F05EFA20461CBDCF0400000FB41CB530
:1002E000084B06AA7B4469460090059800F03DFA49
:1002F00004460020694600F04BFA20461CBC5DF81D
:1003000014FB0000A904000070B50C460546012A44
:1003100005D02878800600D5EA69002302E0012391
:1003200005E05B1C934202D2E05C0028F9D1A86989
:10033000E618C01AA861286A18442862284600F006
:1003400068F904E0D5E9012114F8010B9047B442A3
:10035000F8D3284600F073F970BD00002DE9F04194
:100360000646002410687529314616A510D000F005
:1003700077F9002802DA404213A507E031688A07BE
:1003800001D512A502E0490704D511A5012401E019
:1003900000F06FF900210A2206F1240709E0B0FB02
:1003A000F2FCB0FBF2F302FB1C003030785418462C
:1003B000491C0028F3D123462A463046BDE8F041C7
:1003C00000F060B9000000002D0000002B000000CC
:1003D000200000002DE9F05F894604464FF0000A36
:1003E000DFF874B1FB44C0F820A02046E1688847DC
:1003F000002874D0252806D0D4E901219047206A2E
:10040000401C2062F1E700265F462046E1688847ED
:100410002028054607DB312D05D2781910F8200C6D
:1004200008B10643F1E7B00701D526F00406C4F889
:100430001CA00027C4F818A02A2D09D0284603F0D4
:1004400023F838B304EB8708303DC8F8185019E09A
:1004500059F8041B204604EB87029161E168884744
:10046000012F054618D1E069002820DA26F0200681
:100470001DE0D8F8180000EB800005EB4000303894
:10048000C8F818002046E1688847054602F0FCFFDE
:100490000028EED1012F0AD02E2D08D12046E16888
:1004A00088477F1C0546022F46F02006C4DBA06962
:1004B000002803DA404246F00106A061F00701D0AF
:1004C00026F010066C2D0BD0682D09D04C2D39D09C
:1004D0006A2D35D0742D35D07A2D33D016E038E022
:1004E000E1682F4620468847B842054609D16C2F5F
:1004F00026D04FF48060E1680643204688470546D1
:1005000004E06C2F1AD04FF4807006430DB3A5F1B0
:100510004100192802D8203546F400664A4629468B
:10052000204626604E46FFF73DFE80B101280BD0E5
:10053000F61D26F0070000F1080956E74020E4E721
:100540008020D8E70020D6E706F104094DE72846C9
:1005500052E7206ABDE8F09F743D000030B50546C3
:100560000B462A4613F8014B12F8010B08B1A042C2
:10057000F8D01CB1002802D06D1CF1E7284630BD30
:1005800010B5431C02E010F8011B71B18107FAD1CC
:100590004FF0013202C88C1A8C4314EAC211F9D010
:1005A000C01A0A0603D0C01E10BDC01A10BD0A042E
:1005B00001D0801E10BD0902FCD0401E10BD4FF0BE
:1005C000000200B5134694469646203922BFA0E8A3
:1005D0000C50A0E80C50B1F12001BFF4F7AF0907AF
:1005E00028BFA0E80C5048BF0CC05DF804EB8900A0
:1005F00028BF40F8042B08BF704748BF20F8022BE3
:1006000011F0804F18BF00F8012B704770477047FA
:10061000704770B5044685690068C10601D530266B
:1006200000E02026C00707D070BDD4E90121304684
:100630009047206A401C20626D1EF6D570BD70B5D3
:10064000044685690078C00707D170BDD4E901214F
:1006500020209047206A401C20626D1EF6D570BD98
:1006600009684A0501D540B27047C905FCD500B2FA
:10067000704709684A0501D5C0B27047C905FCD565
:1006800080B270472DE9F0470D46994692460446E0
:1006900000F124080168880604D5E06921F0100102
:1006A000216000E00120A84201DD471B00E0002797
:1006B000A1697A1902EB0900081AA0612078C00626
:1006C00002D42046FFF7A5FF002608E0D4E9012167
:1006D0001AF806009047206A401C761C20624E459E
:1006E000F4DB2078C0060AD52046FFF792FF06E02B
:1006F000D4E9012130209047206A401C2062381E36
:10070000A7F10107F4DC07E0D4E9012118F805009E
:100710009047206A401C2062281EA5F10105F3DCE9
:100720002046FFF78CFF2078000602D50220BDE8A6
:10073000F0870120FBE711680268006A530501D5C4
:1007400008700AE0D30501D5088006E0130603D53A
:10075000C217C1E9000200E00860012070470000F4
:1007600001694A1C02610878704700B58FB0CDE975
:1007700001310021059105497944CDE90310114665
:100780006846FFF727FE0FB000BD0000E5FFFFFF42
:100790000A6802F8010B0A60704710B5436913B18B
:1007A000AFF3008001E0FFF7AFFD012010BD12782C
:1007B00000F124010A7000224A700122EDE711685D
:1007C0004FF0FF32E9E700002DE9FF5F15468A464A
:1007D0000446DFF8AC80F8440027D8E900103E4614
:1007E000CDE9001010E03AF816106A4602A800F0B1
:1007F000F1FC411C07D02178890603D5E26939183C
:1008000091420DD80744761C2078800602D5E06915
:10081000B84205DDAE42E6DB3AF816000028E2D128
:10082000A069C01BA0612046FFF7F3FED8E90010C5
:10083000CDE90010002017E03AF818106A4602A827
:1008400000F0C8FCB0F1FF3F81460BD000250DF150
:10085000080B05E0D4E901211BF8050090476D1C49
:100860004D45F7D308F10100B0428046E4DB206A31
:10087000384420622046FFF7E2FEBDE8FF9F0000FB
:10088000963900002DE9F0418046D21D22F0070282
:100890000025D2E90002F52915A614D0011E72F137
:1008A000000106DA0023D0EB030063EB020211A67D
:1008B00008E0D8F800108B0701D50FA602E0490721
:1008C00001D50EA601251146002408F1240704E0F5
:1008D00000F098F830323A55641C50EA0102F7D122
:1008E0002B46324621464046BDE8F041FFF7CABEDE
:1008F000000000002D0000002B0000002000000080
:1009000030B4002100F1240408E002F00705D20809
:10091000303542EA4372DB086554491C52EA03054C
:10092000F3D10468002310A2250707D5A40600D43C
:1009300021B1C46901230DA2641EC46130BCFFF75C
:10094000A1BE10B5044621461068FFF792FE02468C
:100950002046BDE810400023D2E7D21D22F0070157
:10096000D1E90023CCE700000000000030000000C7
:10097000F0B40D460188090502D5214C7C4402E003
:100980001F4C7C440E34002100F1240608E002F0E4
:100990000F071209E75D42EA03721B097754491CED
:1009A00052EA0307F3D102780023120704D5702D11
:1009B00006D009B1022311342246F0BCFFF762BE13
:1009C00001231034F8E770B504460D46214610683F
:1009D000FFF74FFE024629462046BDE8704000233F
:1009E000C6E7D21D22F00703D3E90023C0E703685E
:1009F000126843F0200303600823C3610023B7E7B4
:100A0000F837000030B5B0F10A024FEA900E71F1EC
:100A100000034EEA817EB0EB0E0061EB91014FEADC
:100A2000101E4EEA017E10EB0E0041EB11114FEA51
:100A3000102E4EEA016E10EB0E0041EB11214FEA31
:100A4000104E4EEA014E10EB0E0041EB11414018E2
:100A500041F100014FEAD00040EA41704FEAD10174
:100A600010EB80054FEA810444EA907444EB0104E2
:100A70006D1944EB0404521BA3414FF0000348BF1F
:100A80000A3200D530BD401C41F1000130BD704735
:100A90002DE9FF4F0C461E464FF0FF378BB0D2E9D1
:100AA0000001DDF860800A908A46C1F30A5505B955
:100AB0003D46002108464FF00000BAF1000F00F457
:100AC000400005DA00EB80004FF4400101EA5000DD
:100AD0004FEA9059B9F1010F00DDB9460A9850EA82
:100AE0004A000ED044F61050A5F2FF3545432F14AE
:100AF000B8F1000F1ED07542291E1EDDC9F100029B
:100B00001CE0B8F1010F4FF0000001D0302103E0EC
:100B1000F24305E02154401CB042FBDB304600228A
:100B2000002121540B99C1F80880C1E900200FB0C1
:100B3000BDE8F08FBD1B6D1CDEE74A4600DA694256
:100B400006A800F0D9FB06AB93E8070003AB83E8E7
:100B5000070050460A9900F096FC8DE80700A0F5C2
:100B600000501F3800900398002D0ADD42F21F014B
:100B70004A460844002303A90390684600F0FFFE9C
:100B800009E0A0F500504A461F38002303A903904E
:100B9000684600F009FF8DE807000004000C03D050
:100BA0004FF0FF30410800E01046B8F1000F03D0CD
:100BB0000022009215461EE0751E05D4FFF722FFA5
:100BC000303262556D1EF9D5B3460122084302D07A
:100BD00000227F1C04E02078302801D100227F1EF3
:100BE000002A099784D01DE0112D07DAFFF70AFFCC
:100BF000303262556D1C50EA0102F5D1084302D033
:100C00000098C8B10EE00021681E05E0235C625C1C
:100C100063542254401E491C8142F7DBAB46A81B9B
:100C2000401E0990002004F80B000B98099AC0F8A8
:100C30000880C0E9002B7AE711264FF0000857E73B
:100C40002DE9F04F88460446D21D22F0070191B0ED
:100C5000D1E90001CDE90A0102F0F2FB02460B984E
:100C6000C00F01D02D2007E02068810701D52B207F
:100C700002E0202101EAC000032A099001D0072ADE
:100C800005DB03464146204600F0F6FA0BE12078EA
:100C9000800601D5E06900E00620B8F1650F8146C5
:100CA00006D0B8F1660F18D0B8F1670F70D131E0F7
:100CB0000020B9F1110F009001DB112301E009F1CF
:100CC00001030AAA01A90CA8FFF7E2FEDDE90C70F6
:100CD000002609F10105834647E001204B460090BC
:100CE0004FF000470AAA01A90CA8FFF7D1FEDDE9E1
:100CF0000DB00C995D46002610B909F101000D18E0
:100D0000B9EB050003D4C0F1FF3609F10105A5EBED
:100D100009002BE0B9F1010F01DA4FF001090020C1
:100D2000B9F1110F0090484601DD112300E00346A0
:100D30000AAA01A90CA8FFF7ABFEDDE90C704D462D
:100D400000268346207800070AD4AB4500DA5D46CA
:100D500001A8012D04DD411911F8011C302907D02B
:100D60004F4502DA17F1040F04DA012082460FE042
:100D70006D1EEEE7002F02DCED1B3E4403E0781C05
:100D8000A84200DD7D1CB81B00F1010A4FF00047AE
:100D90002078000703D4AA4501DB4FF0FF3A002179
:100DA000B7F1004F0DF143088DF8431024D0022015
:100DB0002B23002F01DA7F422D230A21021EA0F1EE
:100DC000010000DC5FB197FBF1FC97FBF1F201FB46
:100DD0001C7C17460CF1300C08F801CDEEE7A8F1A9
:100DE000010003702188090501D5452100E0652136
:100DF000A0F1010800F8011C09980FA9A1EB080750
:100E0000FF1D00B10120411901EBEA70A1693844CE
:100E1000081A401EA0612078C00602D42046FFF7C1
:100E2000F8FB099828B1D4E901219047206A401CB9
:100E300020622078C00622D52046FFF7EAFB1EE09C
:100E4000002E04DBB34502DD01A8805D00E0302008
:100E5000D4E901219047206A401C2062761CAAF147
:100E600001005FEA000A0AD100F002FAC0680168D6
:100E7000405CD4E901219047206A401C2062281E72
:100E8000A5F10105DCDC07E0D4E9012118F8010B2C
:100E90009047206A401C2062381EA7F10107F3DC4E
:100EA0002046FFF7CCFB032011B041E62DE9F04FBF
:100EB00004460D46D21D22F0070089B0D0E9009704
:100EC0004846394602F0BCFA0246F80F01D02D23FD
:100ED00007E02068810701D52B2302E0202101EAE9
:100EE000C0038DF820300BB1012000E00020032A60
:100EF000824601D0072A04DB2946204600F0BCF9CF
:100F00003FE12078800601D40D2500E0E569C7F3B4
:100F10000A560D2D49DA00214FEA175B08464FF0BB
:100F20000000002F00F4400007DA00EB80004FF4CF
:100F3000400100EBD07001EA60008115012901DD5C
:100F40004FF0FF3100224FEA850CBCF1180F06D399
:100F50001346ACF118004FF08052C24003E04FF44A
:100F6000801323FA0CF30CF10C0CBCF1200F04D30A
:100F7000ACF1200C09FA0CF001E007FA0CF00029A2
:100F80004FF0004801DD18B90FE00ED140450CD3F9
:100F900019EB02095F4121B9404502D19F4329EA7B
:100FA0000209BBEB175F00D0761C2088000502D534
:100FB0007B48784402E07A487844193808AA3023FC
:100FC00002F80A30037C0AF10101002E0AF1020A3C
:100FD00053546A4602DC4FF0300101E04FF031011A
:100FE0004FF001088DF8001002D0A6F2FF3603E0A2
:100FF00059EA470100D06B4E002D02DC2178090729
:1010000004D54FF002082E218DF80110C4460021AE
:101010000BE0C7F303433F01C35C491C6D1E02F89C
:101020000830052908F1010801DA002DF1DC002162
:101030000CE000EB1973491C1B786D1E082902F89F
:1010400008304FEA091908F1010801DA002DF0DC37
:1010500021688B0602D516E0A8F10108E04505DD00
:1010600002EB080313F8013C302BF5D0B8F1000F68
:1010700009DD02EB080313F8013C2E2B03D109070D
:1010800001D4A8F10108002D05DD3E2102F8081069
:101090006D1E08F10108407C002E02F8080008F1DE
:1010A000010804DA2D20764202F8080002E02B2025
:1010B00002F808000A214FF47A70864208F101080C
:1010C0000BDB96FBF0F3303302F8083096FBF0F3BD
:1010D00008F1010800FB136601E0642E0CDB6420BC
:1010E00096FBF0F3303302F8083096FBF0F308F18A
:1010F000010800FB136601E00A2E06DB96FBF1F007
:10110000303002F8080008F1010896FBF1F001FB0D
:101110001060303002F80800A16908F1010808EBFE
:10112000050202EB0A00081AA0612078C00602D46A
:101130002046FFF76EFA216A08AE01EB0A00206232
:1011400004E0D4E9012116F8010B9047BAF1010A35
:10115000F7D22078C00602D52046FFF75AFA6E462D
:1011600009E016F8010B3E280FD0D4E90121904781
:10117000206A401C2062B8F10108F2D22046FFF735
:101180005EFA09B00320BDE8F08F206A284420628F
:1011900003E0D4E90121302090476D1EEBD3F8E73E
:1011A000FD31000002FCFFFF10B5436913B1AFF33E
:1011B000008001E0FFF708FB012010BD128800F15C
:1011C000240182840022C2840122EDE711684FF0DD
:1011D000FF32E9E770B516460C46054600F040F8C8
:1011E000036893F80101012806D0FF2C0FD8185D81
:1011F00068B101202C7070BDD3F80701324621463A
:1012000003F2071303442846BDE8704018474FF027
:10121000FF3070BD754600F0EBF8AE46050069463C
:10122000534620F00700854618B020B5FFF732F886
:10123000BDE820404FF000064FF000074FF00008D7
:101240004FF0000B21F00701AC46ACE8C009ACE858
:10125000C009ACE8C009ACE8C0098D467047000081
:1012600010B500F005F8001D10BD00BF712800008A
:10127000004870471C0900202DE9F0411F46044634
:1012800003260168072A01F4006004DB08B116A5F3
:1012900005E016A503E008B115A500E015A521F0AD
:1012A00010002060A069C01EA0610FB1401EA061A7
:1012B0002046FFF7AEF94FB1D4E9012138469047F7
:1012C000206A401C2062C01C206206E0206AFAE707
:1012D000D4E9012115F8010B9047761EF8D220467B
:1012E000FFF7ADF9BDE8F0814E414E006E616E0032
:1012F000494E4600696E66002DE9F0478146164664
:101300008AB0354878440DC88DE80D0032487844DD
:10131000801C03AC0DC884E80D0041F69B300844E6
:10132000372190FBF1F290FBF1F5A5F1800501FB6F
:1013300012041B3C02D56442012000E00020DFF8CB
:1013400098A080460027FA44AAF1BE0A0EE0E00702
:101350000AD03246684607EB470101230AEB8101B8
:1013600000F022FB8DE8070064107F1C002CEED1FA
:10137000194F7F44AE3F19E0E80715D007EB041082
:101380000DF1180A90E80E008AE80E00C068F042DD
:1013900001D1981908903246012306A903A800F04C
:1013A00003FB03AB83E807006D10641C002DE3D141
:1013B0004FF0010332466946B8F1000F03A802D08E
:1013C00000F0DDFA01E000F0EFFAC9E90001C9F828
:1013D00008200AB0BDE8F0873C2F000010B5044695
:1013E000AFF300802046BDE81040FEF73EBF00008E
:1013F00000487047FC0800204FF0013C50F8042BD7
:1014000051F8043B9A4221D1A2EB0C03934313EA17
:10141000CC1317D150F8042B51F8043B9A4215D144
:10142000A2EB0C03934313EACC130BD150F8042B1B
:1014300051F8043B9A4209D1A2EB0C03934313EAFF
:10144000CC13DBD04FF00000704700BFD01A01BAB8
:10145000B1FA81F101F0180122FA01F0CB40C1F19B
:101460002001DBB2C0B2C01A2CFA01F3D11A9143A9
:1014700011EAC311E6D1704701491820ABBEFEE75F
:101480002600020070475FEA400C08BF91F0000F91
:101490004FEA8C234FEAC12243EA51514FEA1C50D4
:1014A00018BF00F5F0404FEA300018BF41F000418E
:1014B0005FEA6C5C00F02980BCF1FF3F08BF40F0A0
:1014C00080407047130C06BF12044FF0100C4FF011
:1014D000000C130E04BF12020CF1080C130F04BF12
:1014E00012010CF1040C930F04BF92000CF1020CDA
:1014F000D30F04BF52000CF1010C11464FF0000253
:10150000A0F11F00A0EB0C00704711F0004F08BFC6
:10151000704731F000413FF4D5AF0B0C06BF090412
:101520004FF0100C4FF0000C0B0E04BF09020CF131
:10153000080C0B0F04BF09010CF1040C8B0F04BF46
:1015400089000CF1020CCB0F04BF49000CF1010C17
:10155000CCF12003A0EB0C0022FA03F302FA0CF208
:1015600041EA030100F10100704720F07F4C80EA5E
:10157000030023F07F47ACEB070303F57C5300F037
:10158000004003F1FF032DE980494FEA154B09B4F0
:101590004FEA144325EA0B4E24EA03480FF20426CF
:1015A00006EB132749083E785FEA320203FB066721
:1015B000C7F5000707FB06F64FEA54374FEAD64651
:1015C00006F1020607FB066CCCF1005C4FEA1C47F3
:1015D0002CEA074C07FB06F40CFB06F504EB15465A
:1015E0004FEA961634BF00204FF000404FEAD13743
:1015F00006FB07FC4FEA1C4C0CFB0BF7D21B03FB52
:101600000CF761EB07010CFB0EF7B0EB074072EB38
:1016100017420CFB08F734BFA2EB0742B2EB0742BC
:1016200061EB17414FEA0C444FEA910706FB07FCB8
:101630004FEA1C4C0CFB0BF7B0EBC74072EB573278
:1016400003FB0CF734BFA2EBC742B2EBC74261EB1E
:1016500057310CFB0EF7B0EBC70072EB57720CFB67
:1016600008F734BFA2EBC702B2EBC70261EB5771B8
:10167000039F4FEA816141EA921104EBCC044FEAE7
:10168000D1374FEA826206FB07FC42EA90124FEA2A
:1016900080604FEA1C4C0CFB0BF7D21B03FB0CF7D2
:1016A00061EB07010CFB0EF7B0EB074072EB174242
:1016B0000CFB08F734BFA2EB0742B2EB074261EB29
:1016C00017414FEA8C554FEA910704EB9C2406FB27
:1016D00007FC4FEA1C4C0CFB0BF7B0EBC74072EB5E
:1016E000573203FB0CF734BFA2EBC742B2EBC74241
:1016F00061EB57310CFB0EF7B0EBC70072EB577282
:101700000CFB08F734BFA2EBC702B2EBC70261EBD8
:10171000577115EB4C254FEA816141EA92114FEA6E
:1017200082624FEAD13742EA901206FB07FC44F18D
:1017300000044FEA80604FEA1C4C0CFB0BF7D21BF5
:1017400003FB0CF761EB07010CFB0EF7B0EB074056
:1017500072EB17420CFB08F734BFA2EB0742B2EB67
:10176000074261EB174115EB1C154FEA813141EA45
:1017700092414FEA823242EA90424FEA80304FEA89
:101780000C7644F1000448EA03434EEA0B484FF05C
:10179000000EB2EB080C71EB030724BF624639461A
:1017A0004EEB0E0E4FF0000B0018524149414BEB2F
:1017B0000B0BB2EB080C71EB03077BF1000B24BFA2
:1017C000624639464EEB0E0E4FF0000B00185241A8
:1017D00049414BEB0B0BB2EB080C71EB03077BF1B0
:1017E000000B24BF624639464EEB0E0E51EA02074B
:1017F00018BF46F0010616EB0E7655F1000254F1C3
:10180000000103D5BDE88901BDE80088BDE8890174
:10181000BDE80048B619524141EB0101A3F10103B3
:10182000704780807F7E7D7C7B7A7978777676754D
:101830007473727171706F6E6E6D6C6C6B6A6A69C5
:101840006868676666656464636362616160605F5F
:101850005F5E5E5D5D5C5C5B5B5A5A5959585857D8
:101860005756565555555454535352525251515040
:1018700050504F4F4F4E4E4D4D4D4C4C4C4B4B4B93
:101880004A4A4A49494948484847474747464646D9
:101890004545454444444443434343424242424114
:1018A0004141002B9C4630D477002BD01CB54FEA29
:1018B000370703B44FF010004FF01001BAF1000FDA
:1018C00006D0BCF1000FDCBF40F0080040F008017A
:1018D0004FF000000FBCBDE810400BF1010BBBF155
:1018E000010F08BF5FEA170722BF12F1010211F1D1
:1018F00001014FF0004143F1000300F0004043EAD2
:1019000000007047F9D35708D0E746EA064613F1BE
:10191000400F4FEA16461FDD13F1200FDFBF1643BD
:101920000A46002120335B42BED0C3F1200746EABD
:10193000064602FA07F74FEA164646EA0706C3F1DB
:10194000200722FA03F201FA07F721FA03F14FF018
:10195000000342EA0702A7E746EA020646EA06460D
:101960004FEA164646EA0106BCBF46EA0646360C72
:101970004FF000034FF000024FF0000194E72DE913
:10198000804C9A46934670B491E8380007C831EA13
:10199000400C48BF34EA430C03D5FFF7E6FDFFF7E0
:1019A00080FFF0BCBDE8008C2DE9804C9A46934640
:1019B00070B491E8380007C810F0804F08BF13F0EA
:1019C000804F03D100F005F8FFF76BFFF0BCBDE8D6
:1019D000008C20F07F4780EA030023F07F4C07EB68
:1019E0000C03A3F57C5300F00040A3F1FE0392F03A
:1019F000000F00F0B38095F0000F00F077802DE924
:101A000001494FEA11404FEA144621EA004800FB21
:101A100006FC24EA064708FB06F607FB08F800FB6D
:101A200007F718EB06484CEB164C4FEA124B18EB35
:101A300007484FEA15464CEB174022EA0B4E0BFBCA
:101A400006FC25EA06470EFB06F607FB0EFE0BFB1F
:101A500007F71EEB064E4CEB164C4FF000061EEB44
:101A6000074E4CEB174B18EB0B0840F1000018EB3E
:101A70000E0B58EB000840F100008F1A4FF00001E8
:101A80003CBFC943661B14BFB5EB040C00213CBF2F
:101A9000C943F61B4FEA17444EEA8E0E27EA044567
:101AA0004FEA1C4704FB07622CEA074C05FB07F7CB
:101AB0000CFB05F604FB0CFC16EB074642EB174249
:101AC00016EB0C4642EB1C421BEB060658EB0202DF
:101AD000414146EA9E0601D5BDE80189B619524149
:101AE00041EB0101A3F10103BDE801894FEA14456F
:101AF0004FEA114724EA054621EA074C05FB07F4A3
:101B000006FB07F70CFB06F105FB0CFC11EB07418C
:101B100044EB17444FEA124711EB0C4144EB1C44D1
:101B200022EA074C05FB07F206FB07F70CFB06F65B
:101B300005FB0CFC16EB074642EB174216EB0C4676
:101B400042EB1C456A1854F1000148BF7047B619B2
:101B5000524141EB0101A3F10103704795F0000FE1
:101B600037D04FEA11424FEA144721EA024624EAED
:101B7000074C02FB07F106FB07F70CFB06F402FB20
:101B80000CFC14EB074441EB17414FEA154714EBEB
:101B90000C4441EB1C4125EA074C02FB07F506FB10
:101BA00007F70CFB06F602FB0CFC16EB074645EBB1
:101BB000174516EB0C4645EB1C42121951F100017A
:101BC00048BF7047B619524141EB0101A3F101032F
:101BD00070474FEA14454FEA114724EA054621EAC7
:101BE000074C05FB07F106FB07F70CFB06F24FF06D
:101BF000000605FB0CFC12EB074241EB174112EB10
:101C00000C4251EB1C4148BF7047921841EB010157
:101C1000A3F101037047FEE7704772B6FEE70000CC
:101C200070B5044600F018F90546601C02D004485F
:101C30000078044400F010F9401BA042FAD370BDB4
:101C4000140000202DE9F84FDFF8C8910024A9F115
:101C5000040B23460F2709F1040AABF1040ED1E06F
:101C60000125A54006EA0502AA4276D1DFF8A8C1FF
:101C70004E68A6EB0C0866452BD00DDC032E34D045
:101C800005DC36B3012E19D0022E2FD11BE0112E08
:101C900016D0122E2AD119E0B8F5881F19D006DC0B
:101CA000B8F5803F15D0B8F5801F1FD111E0B8F509
:101CB000001F0ED0B8F5041F18D10AE0CB6815E05C
:101CC000CB681B1D12E0CB6808330FE0CB680C33E8
:101CD0000CE08B682BB1012B4FF0080303D045615A
:101CE00004E0042302E0056100E00023FF2A01D89C
:101CF000064601E000F104064FEA840501D9A5F18A
:101D00002005D6F8008007FA05FC28EA0C0803FA3B
:101D100005F548EA0508C6F800804D68ED0070D565
:101D20003E4DAE6946F00106AE61AD6924F0030692
:101D300005F0010500953A4D06EB050CDCF808505E
:101D4000A607360F07FA06F825EA0805DFF8D4805B
:101D5000404503D14FF0000825E052E0DFF8C8808D
:101D6000404502D14FF001081DE0DFF8C08040453A
:101D700002D14FF0020816E0DFF8B480404502D1EE
:101D80004FF003080FE0DFF8AC80404502D14FF080
:101D9000040808E0DFF8A080404502D14FF00508B4
:101DA00001E04FF0060808FA06F848EA0508CCF802
:101DB00008804D68D9F80060ED024D4601D5164304
:101DC00000E096432E604D68DAF80060AD0255469B
:101DD00001D5164300E096432E604D68DBF80060A5
:101DE000AD035D4601D5164300E096432E604D6875
:101DF000DEF80060ED03754601D5164300E096431A
:101E00002E60641C0A681646E2407FF429AFBDE8E4
:101E1000F88F00000804014000001110001002407B
:101E20000000014000080140000C0140001001408A
:101E30000014014000180140001C0140C26821EA62
:101E400002030A4043EA0241016170470AB101619D
:101E500070470904FBE700000148806870470000F4
:101E600014000020024881680278114481607047A4
:101E700014000020074810B5016841F0100101600E
:101E8000032000F075F80F2000F006F800F024F8A9
:101E9000002010BD0020024070B50D4D04464FF4E7
:101EA0007A712878B1FBF0F00A490968B1FBF0F0CB
:101EB00000F0DCFA48B9102C07D200222146501E4F
:101EC00000F036F800206C6070BD012070BD00008D
:101ED00014000020200000200C4808B5816941F062
:101EE00001018161816901F001010091C16941F045
:101EF0008051C161C06900F0805000900448416881
:101F000021F0E06141F00071416008BD0010024025
:101F100000000140002809DB00F01F020121914070
:101F20004009800000F1E020C0F800117047000077
:101F3000F0B40E4B1B680C46C3F30223C3F1070534
:101F4000042D00D90425191D072901D2002300E022
:101F5000DB1E012606FA05F1491E214099409E40EC
:101F6000761E16403143F0BC01F07EBA0CED00E065
:101F7000064900F0070208684FF6FF03184040EAE0
:101F80000220034A10430860704700000CED00E097
:101F90000000FA052DE9F0470F46050061D0434ED9
:101FA000306800F00700B84209D2306820F007001E
:101FB00038433060306800F00700B84251D12868DB
:101FC0003B4C810712D5400703D5606840F4E060C0
:101FD00060602878000703D5606840F46050606056
:101FE0006068A96820F0F000084360602878C007A6
:101FF00028D06868012810D02168022810D08907ED
:1020000000292EDA616821F0030101436160FFF7C6
:1020100023FF804641F288390DE021688903EFE70C
:102020008901EDE7FFF718FFA0EB0801494502D948
:102030000320BDE8F0876068696800F00C00B0EB31
:10204000810FEFD1306800F00700B8420BD930683B
:1020500020F0070038433060306800F00700B842D5
:1020600001D00120E5E72878400705D56068E968D8
:1020700020F4E060084360602878000706D56068B7
:10208000296920F4605040EAC100606000F038F82F
:102090006168084AC1F30311515CC84006490860F1
:1020A00006480068FFF7F8FE0020C2E70020024063
:1020B00000100240444100082000002018000020C9
:1020C0000448054900684968044AC1F30221515C8B
:1020D000C840704720000020001002405441000812
:1020E0000448054900684968044AC1F3C221515CAB
:1020F000C8407047200000200010024054410008F2
:102100000E4A51680E4801F00C03042B11D0082B25
:102110000FD10C48C1F38343C903C05C0AD5516891
:10212000084AC1F34041921E515C054A5043B0FB3E
:10213000F1F0704704494843704700000010024026
:1021400000127A003441000800093D002DE9F84FE3
:10215000040070D02078C04DC00749D06868C0F333
:102160008100012807D06868C0F38100022809D1E6
:102170006868C00306D52868800339D560680028E0
:10218000E7D035E06068B0F5803F0BD010B1B0F516
:10219000A02F11D0286820F480302860286820F40F
:1021A000802002E0286840F480302860606890B1A8
:1021B000FFF752FE06460AE0286840F480202860B7
:1021C000F0E700BFFFF748FE801B642873D828683B
:1021D0008003F7D50CE0FFF73FFE064605E000BFA1
:1021E000FFF73AFE801B6428F0D828688003F7D4F4
:1021F00020789A4E80074FF001094FF0000839D53A
:10220000686810F00C0F07D06868C0F381000228DE
:1022100009D16868C00306D42868800714D52069EE
:10222000012808D110E02069B0B1C6F80090FFF78E
:1022300013FE074605E00AE1FFF70EFEC01B022869
:10224000C4D828688007F7D52868616920F0F800AD
:1022500040EAC10028600DE0C6F80080FFF7FCFDF1
:10226000074604E0FFF7F8FDC01B022823D82868C2
:102270008007F7D4207800072CD57948A169D9B117
:10228000C0F80090FFF7E8FD074604E0FFF7E4FD23
:10229000C01B02280FD8686A8007F7D571484FF431
:1022A000FA510068B0FBF1F0009000BF0098411EA9
:1022B0000091FAD20EE080E0C0F80080FFF7CCFD7C
:1022C000074604E0FFF7C8FDC01B022875D8686AFE
:1022D0008007F7D42078400760D5E8690027C00060
:1022E00008D4E86940F08050E861E869012700F00F
:1022F000805000905C480168C90513D4016883468A
:1023000041F480710160FFF7A7FD824606E000BF3F
:10231000FFF7A2FDA0EB0A0064284ED8DBF800000E
:10232000C005F5D5E06801280AD008B1052813D00A
:10233000286A20F001002862286A20F0040002E0E8
:10234000286A40F001002862E06841F2883B98B1B9
:10235000FFF782FD82460BE0286A40F00400286205
:10236000EEE700BFFFF778FDA0EB0A0159455AD808
:10237000286A8007F6D50CE0FFF76EFD824605E07F
:10238000FFF76AFDA0EB0A0159454CD8286A80077F
:10239000F6D41FB1E86920F08050E861E06988B3A5
:1023A0006968C1F38101022944D00228C6F860801F
:1023B00004D0FFF751FD044638E034E0FFF74CFD50
:1023C000074604E0FFF748FDC01B02282BD8286809
:1023D0008001F7D4206AB0F5803F05D16868A16814
:1023E00020F4003008436860D4E9080108436968B4
:1023F00021F4741108436860C6F86090FFF72CFD63
:10240000044606E025E000BFFFF726FD001B02287A
:1024100009D828688001F7D51BE000BFFFF71CFD35
:10242000001B022802D90320BDE8F88F286880012C
:10243000F4D40EE00128F7D06868226A00F48031F5
:10244000914204D1616A00F47010884201D00120E9
:10245000EAE70020E8E700000010024000004242E6
:1024600080044242200000200070004010B5401E51
:10247000B0F1807F01D3012010BD4FF0E0246061F6
:102480000F21601700F0F0FF0020A06107202061FD
:10249000002010BD7047704770B590F83C20012AAD
:1024A0002CD0012480F83C40022280F83D200368B3
:1024B0005A689D6822F070060A6832435A60104BD1
:1024C00002689A420ED00F4B9A420BD0B2F1804F65
:1024D00008D00D4B9A4205D00C4B9A4202D00C4BBF
:1024E0009A4204D1496825F080031943916080F82D
:1024F0003D40002180F83C10084670BD022070BDB0
:10250000002C01400034014000040040000800405D
:10251000000C004010B5040003D094F83D0010B149
:1025200007E0012010BD002084F83C00204600F0A8
:102530001FF8022084F83D00211D206800F08CFD6A
:10254000012084F8460084F83E0084F83F0084F8B7
:10255000400084F8410084F8420084F8430084F885
:10256000440084F8450084F83D00002010BD0000C0
:1025700000B585B00021009101910291039100689E
:10258000124988421FD11248816941F4006181617A
:10259000816901F400610491816941F00401816164
:1025A0008069694600F0040004904FF48070009048
:1025B0000848FFF747FB002211461B20FFF7B8FC35
:1025C0001B20FFF7A7FC05B000BD0000002C014058
:1025D000001002400008014090F83D10012901D090
:1025E00001207047022180F83D1000680E498842A2
:1025F0000ED00E4988420BD0B0F1804F08D00C4964
:10260000884205D00B49884202D00B49884204D148
:10261000816801F00701062903D0016841F001013A
:102620000160002070470000002C01400034014090
:102630000004004000080040000C004070B5044653
:1026400090F83C000025012817D0012684F83C6052
:10265000022084F83D002068826822F0770222F48C
:102660007F4282600868502838D00DDC20284FD087
:1026700005DC90B3102811D14AE0022070BD30284B
:1026800046D040280AD13BE060282FD070280DD0DA
:10269000B0F5805F03D0B0F5005F12D0012584F85B
:1026A0003D60002084F83C00284670BDCB68D1E92D
:1026B0000121206800F02BFD2068816841F077013E
:1026C00009E0CB68D1E90121206800F020FD2068F5
:1026D000816841F480418160E1E719E0CA68496896
:1026E000206800F026FD5021206806E0CA6849688D
:1026F000206800F065FD6021206800F012FDCEE743
:10270000CA684968206800F014FD40212068F4E799
:10271000226801461046F0E7134910B5884221D1DE
:10272000007F02281ED100210F4800F062FA01F05C
:10273000B1FB0E4C0421A0600B4800F05AFA01F0E6
:10274000A9FBE060A16801F003FC01F015FB084A59
:10275000084B01F013FA4FF0FF3201F0A4FC01F036
:10276000D3F9606010BD00002800002000000020A8
:102770009CC420B07268A13F2DE9F041054690F855
:102780003C0000260C46012810D0012085F83C00B2
:1027900072B1042A1CD0082A2CD00C2A50D0012651
:1027A000002085F83C003046BDE8F0810220FBE7C0
:1027B000D4E90012E368286800F0CCFC286881693D
:1027C00021F00C01816128688169A26811430FE042
:1027D000D4E90012E368286800F004FD28688169E4
:1027E00021F44061816128688169A26841EA02217F
:1027F0008161D5E72868D4E9002C277B036A016A48
:1028000021F480710162C16923F4007321F0030196
:1028100041EA0C0121F0F00C39074FF400774CEA43
:10282000116107EA02221A43C16102622868C16984
:1028300021F00C01C1612868C169A26811432BE035
:102840002868D4E90021E768036AD0F820C02CF496
:10285000805CC0F820C0D0F81CC023F400532CF4D6
:10286000407C4CEA012121F4704C4FF6FF7101EAE3
:1028700007314FF4005741EA0C0107EA02321A43CC
:10288000C16102622868C16921F44061C1612868A0
:10289000C169A26841EA0221C16181E710B5040063
:1028A00003D094F83D0010B107E0012010BD0020D6
:1028B00084F83C00204600F01EF8022084F83D0019
:1028C000211D206800F0C8FB012084F8460084F830
:1028D0003E0084F83F0084F8400084F8410084F80A
:1028E000420084F8430084F8440084F8450084F8EA
:1028F0003D00002010BD704710B5044651B10429B9
:102900000DD0082910D094F8410094F845200128F2
:1029100011D10EE094F83E0094F84220F7E794F8C5
:102920003F0094F84320F2E794F8400094F84420E4
:10293000EDE7012A01D0012010BD022049B304298E
:102940002CD008292FD084F8410084F845000122BA
:10295000206800F0CFFB1649206888420ED0154948
:1029600088420BD0B0F1804F08D01349884205D07F
:102970001249884202D01249884204D1816801F08C
:102980000701062903D0016841F001010160002020
:1029900010BD84F83E0084F84200D8E784F83F0078
:1029A00084F84300D3E784F8400084F84400CEE77D
:1029B000002C0140003401400004004000080040A9
:1029C000000C004030B50446002551B104290DD05B
:1029D000082910D094F8412094F84500012A11D11B
:1029E0000EE094F83E2094F84200F7E794F83F2078
:1029F00094F84300F2E794F8402094F84400EDE79F
:102A0000012801D0012030BD022059B1042912D083
:102A1000082919D084F8410084F845000C293ED0DB
:102A200001253AE084F83E0084F842002068C2683C
:102A300042F0020210E084F83F0084F8430020686E
:102A4000C26842F0040207E084F8400084F84400C1
:102A50002068C26842F00802C2600122206800F0CB
:102A600049FB1149206888420ED0104988420BD09A
:102A7000B0F1804F08D00E49884205D00D498842F8
:102A800002D00D49884204D1816801F0070106296E
:102A900003D0016841F001010160284630BD206883
:102AA000C26842F01002D7E7002C01400034014018
:102AB0000004004000080040000C00402DE9F041F7
:102AC00004460068C66805694FF00007A90713D5DA
:102AD000B10711D5F91E01610120207720688069B6
:102AE0008007204602D0FFF717FE04E000F07EF8D2
:102AF000204600F07CF82777680716D5700714D5B4
:102B000021686FF004000861022020772068806946
:102B100010F4407F204602D0FFF7FEFD04E000F0F5
:102B200065F8204600F063F82777280715D53007A9
:102B300013D521686FF00800086104202077206811
:102B4000C0698007204602D0FFF7E6FD04E000F0F0
:102B50004DF8204600F04BF82777E80616D5F0062A
:102B600014D521686FF010000861082020772068D4
:102B7000C06910F4407F204602D0FFF7CDFD04E08D
:102B800000F034F8204600F032F82777E80708D044
:102B9000F00706D021686FF001000861204600F0C0
:102BA00027F8280608D5300606D521686FF0800082
:102BB00008612046FFF76EFC680608D5700606D54A
:102BC00021686FF040000861204600F027F8A80651
:102BD0000AD5B00608D521686FF0200008612046AC
:102BE000BDE8F041FFF757BCBDE8F0817047704782
:102BF00070470246002041B1042909D008290AD0B3
:102C00000C2901D11068006C70471068406B704748
:102C10001068806B70471068C06B7047704770B564
:102C2000040004D094F84100002510B106E0012012
:102C300070BD84F84050204600F024F8242084F829
:102C400041002068C16821F40051C160204600F0B5
:102C500061FB2068016921F49041016120684169AC
:102C600021F02A0141612068C16841F40051C1602E
:102C70006564202084F8410084F8420065630020E8
:102C800070BD000070B586B0002504460095019522
:102C90000295039500681D49884235D11C49C869D1
:102CA00040F40020C861C86900F4002004908869DD
:102CB00040F0100088618869164E00F01000049002
:102CC00008150090022001900320039069463046C9
:102CD000FEF7B8FFF014CDE90005694630460295CD
:102CE000FEF7B0FF002211463420FFF721F934200F
:102CF000FFF710F92068C16841F02001C160206829
:102D0000C16841F01001C16006B070BD004C0040C8
:102D100000100240001001402DE9F84F044690F8E1
:102D200042009A4616460D46202802D00220BDE8F1
:102D3000F88FB5B1AEB100206064222184F8421052
:102D40002063FFF789F8A6858146E685A0684FF4E1
:102D500080582027404501D1206920B12E4600250A
:102D600029E00120E3E7002625E04B460022202150
:102D70002046CDF800A000F029FB18B184F842707D
:102D80000320D4E726B1A06840451AD038B108E046
:102D900020684068C0F3080025F8020B08E02069AD
:102DA00078B12068406800F07F0000BF06F8010B92
:102DB000E08D401EE085E08D0028D6D184F8427079
:102DC000B5E720684068F1E72DE9F843044690F83C
:102DD0004100984616460D46202802D00220BDE844
:102DE000F88385B17EB100206064212084F8410021
:102DF000FFF732F8A6848146E684A0682027B0F564
:102E0000805F02D003E00120E9E7206910B12E467F
:102E100000250EE000260CE08021204600F0D6FAC6
:102E2000A8B9C6B116F8010B21684860E08C401EB5
:102E3000E084E08C4B464FF00002CDF80080002883
:102E4000EAD14FF04001204600F0C0FA40B184F8CA
:102E500041700320C3E735F8020BC0F30800E3E735
:102E600084F841700020BAE7FEE7000070B586B034
:102E7000002520480095019502950395816941F050
:102E800020018161816901F020010491816941F093
:102E900010018161816901F010010491816941F0A3
:102EA000040181618069144E00F004000490002246
:102EB0004FF420713046FEF7C9FF4020CDE90005F0
:102EC0000124694602943046FEF7BCFE80208DE85E
:102ED00031000225694630460395FEF7B3FE6002D5
:102EE000CDE9000469463046CDE90245FEF7AAFE69
:102EF00006B070BD001002400010014010B58AB04D
:102F0000002428480494059406940794089409948E
:102F10000094019402942249039401604721C0E97E
:102F200001144FF6FF71C0E9031444618461FFF797
:102F3000F1FA08B1FEF771FE4FF48050049004A935
:102F40001848FFF77BFB08B1FEF767FE1548FFF74F
:102F5000A5FC08B1FEF761FE089408A91148099480
:102F6000FFF79AFA08B1FEF758FE0120CDE90040BC
:102F70000294002269460B480394FFF7FDFB08B159
:102F8000FEF74BFE0220009001900422694605489E
:102F9000FFF7F2FB002801D0FEF73FFE0AB010BD9C
:102FA000002C0140280000200C4810B50A4901609F
:102FB0004FF4E1314160002181600C22C160C0E921
:102FC00004128161C161FFF72AFE002803D0BDE829
:102FD0001040FEF722BE10BD004C004070000020E3
:102FE000FEE7FEE770477047FEF73CBF30B58FB095
:102FF00028216846FDF7E3FA14210AA8FDF7DFFA55
:1030000001210804CDE90010002402940225049156
:10301000CDE907504FF4E01009906846FFF796F8A5
:1030200008B172B6FEE70F20CDE90A054FF48060C3
:10303000CDE90C4002210AA80E94FEF7ABFF002850
:1030400001D072B6FEE70FB030BD70470148FFF700
:1030500035BD000028000020F0B50268204C214D4D
:10306000214E224F224B4FF0804CA04209D0984273
:1030700007D0604505D0A84203D0B04201D0B84285
:1030800004D122F0700E4A6842EA0E02A04209D032
:10309000984207D0604505D0A84203D0B04201D085
:1030A000B84203D122F44075CA682A434D6922F020
:1030B00080022A4302608A68C2620A688262A04271
:1030C00001D0984201D1096901630121416101697F
:1030D000C90703D0016921F001010161F0BD0000C1
:1030E000002C01400004004000080040000C00409B
:1030F0000034014010B501F01F030121046A99401A
:103100008C430462016A9A401143016210BD10B5FC
:10311000846842EA032224F47F440A432243826003
:1031200010BD826822F070020A4342F007018160FC
:10313000704710B5036A046A24F0010404628469CC
:1031400024F0F00444EA021423F00A020A438461E2
:10315000026210BD70B5056A046A24F001040462BD
:103160008469124EB0420ED0114EB0420BD0B0F175
:10317000804F08D00F4EB04205D00F4EB04202D063
:103180000E4EB04203D124F00304144301E044F096
:1031900001041A0724F0F00444EA126225F00A033D
:1031A00001F00A0119438261016270BD002C0140E7
:1031B000003401400004004000080040000C0040C2
:1031C00010B5036A046A24F010040462846923F0D1
:1031D000A00324F4704444EA023243EA01118261FC
:1031E000016210BD30B5046A056A25F0100505625C
:1031F000856925F4407545EA022222F470454FF6B0
:10320000FF7202EA033224F0A0032A43A02404EA56
:10321000011119438261016230BD0000F8B5254DEE
:1032200028680168C943090704D40168416800910E
:10323000016841680068204CC04380062BD44FF0E1
:10324000FF3301221D491B48FFF766FDB4F8003823
:1032500040F2FF76C3F30E0218494FF40030B24239
:1032600001D2097806E0DA0BD203A4F80028097825
:10327000C2F30E02A154B4F8001800EBF1304FEA8B
:103280007040A4F8000828680068C043800602D493
:103290000BA000F03DFB28680168C943C90608D4AB
:1032A000B4F8001841F40041A4F80018016840681F
:1032B0000090F8BD70000020B80000201000002031
:1032C000310D0A0001680C3151E8002F22F4907290
:1032D00041E80023002BF5D10168143151E8002F9B
:1032E00022F0010241E80023002BF5D1016B0129F6
:1032F00009D101680C3151E8002F22F0100241E899
:103300000023002BF5D1202180F842100021016319
:103310007047000070B5044600680169E26821F456
:103320004051114301612169A06808436169084364
:103330002168CA6841F20C639A430243CA6020685C
:103340004169A26921F44071114341611E4920681D
:10335000884202D1FEF7C4FE01E0FEF7B1FE00EBA9
:10336000C00101EB0012606864218000B2FBF0F341
:10337000B3FBF1F36FF018067343B2FBF0F5B2FB49
:10338000F0F605EB8305322303EB0515B5FBF1F5EC
:10339000B6FBF1F605F0F00505EB0615B2FBF0F60D
:1033A000B2FBF0F0B0FBF1F06FF01802504306EB07
:1033B000800003EB0010B0FBF1F0216800F00F007B
:1033C0002844886070BD0000003801402DE9F843B2
:1033D000984617460D460446089E24E0701C22D0ED
:1033E000FEF73AFDA0EB0800B0421AD8CEB1206833
:1033F000C168490717D5802D15D0402D13D001681D
:10340000C94309070FD40168002540680090204691
:10341000FFF758FF0820606484F840500120BDE8A1
:10342000F8830320FBE72068006835EA000004D039
:103430000020B842D2D00020F1E70120F9E7FEE7F2
:10344000490050EAC12018BF04204A0D18BF40F0BF
:10345000010040F2FF72B2EB515F08BF40F0020082
:10346000012808BF052070470907090E002804DB62
:1034700000F1E02080F80014704700F00F0000F128
:10348000E02080F8141D704730380A2801D201204E
:10349000704700207047000010B50024642206A188
:1034A00006A000F035F8002804D0641CE4B20A2C11
:1034B000F4D3012010BD00004F4B00004154000028
:1034C00010B54FF47A7204A105A000F021F800288D
:1034D00000D0012010BD0000612B6F6B00000000C8
:1034E0002B2B2B610000000010B504460C2801D9DD
:1034F000032010BDFFF7E4FFFFF7CEFF08B1012066
:1035000010BD02480470002010BD000024000020FF
:1035100070B514460D46064600F022FA31460CA05E
:1035200000F0F6F93DB134B100F00AFA38B129469D
:10353000FDF714F808B1002070BD00F011FA012069
:10354000641EFEF76DFB002CEED1022070BD000062
:1035500025730D0A000000001FB5811E40F2FF32E6
:10356000914202D3032004B010BD024606A1684672
:10357000FCF7B4FE642208A16846FFF7C9FF0028E3
:10358000F1D00120EFE7000041542B414450544951
:103590004D3D2564000000004F4B000000B591B088
:1035A000024607A16846FCF799FE642207A1684617
:1035B000FFF7AEFF002800D0012011B000BD0000D1
:1035C00041542B48454C4C4F3D2573004F4B000058
:1035D00000B585B020B1012804D0032005B000BD9E
:1035E00009A100E009A104A8FCF778FE04AA08A13B
:1035F0006846FCF773FE642208A16846FFF788FF5F
:103600000028EBD00120E9E74F4E00004F4646006E
:1036100041542B4C4544454E3D2573004F4B000013
:1036200000B587B020B1012804D0032007B000BD49
:1036300009A100E009A105A8FCF750FE05AA08A110
:103640006846FCF74BFE64220AA16846FFF760FF5C
:103650000028EBD00120E9E74F4E00004F4646001E
:1036600041542B4C494E4B50415353454E3D2573CD
:10367000000000004F4B000000B585B020B10128CC
:1036800004D0032005B000BD09A100E009A104A8F1
:10369000FCF724FE04AA08A16846FCF71FFE64227A
:1036A00009A16846FFF734FF0028EBD00120E9E7C5
:1036B0004F4E00004F46460041542B4D4158505547
:1036C000543D2573000000004F4B00001FB5052836
:1036D0001ED2DFE800F0030517191B0010A100E05F
:1036E00010A16846FCF7FAFD6A460FA101A8FCF795
:1036F000F5FD64220FA101A8FFF70AFF50B10120D8
:1037000004B010BD0CA1ECE70CA1EAE70CA1E8E7BE
:103710000320F5E76420FEF783FA0020F0E70000BD
:103720004D0000005300000041542B4D4F44453DD7
:10373000257300004F4B00004F00000042000000C6
:103740004900000000B591B0024607A16846FCF7A9
:10375000C5FD642207A16846FFF7DAFE002800D005
:10376000012011B000BD000041542B4E414D453D9C
:10377000257300004F4B000000B587B020B1012831
:1037800004D0032007B000BD09A100E009A105A8ED
:10379000FCF7A4FD05AA08A16846FCF79FFD64227A
:1037A0000AA16846FFF7B4FE0028EBD00120E9E744
:1037B0004F4E00004F46460041542B534C41564556
:1037C000534C454550454E3D257300004F4B00007E
:1037D0000EB5082821D2DFE800F00406080A0C0E16
:1037E000101201220CE002220AE0032208E0042267
:1037F00006E0052204E0062202E0072200E008229B
:1038000007A16846FCF76AFD642208A16846FFF735
:103810007FFE002800D001200EBD03200EBD000059
:1038200041542B54504C3D25640000004F4B000088
:1038300030B5154689B01C464FF496620D2845D226
:10384000DFE800F027070A0D101316191C1F2227A6
:1038500025004FF416621CE04FF4965219E04FF425
:10386000165216E04FF4615213E04FF4964210E006
:103870004FF416420DE04AF2F8720AE04FF461424A
:1038800007E04FF4963204E04FF4E13201E04FF4E8
:10389000613231B1012906D0022906D0032915D1A0
:1038A00005E0052304E0062302E0072300E00823E7
:1038B00025B1012D04D0022D08D103E0002002E043
:1038C000012000E0022024B1012C04D0032009B023
:1038D00030BD012100E00221CDE9000106A102A8CE
:1038E000FCF7FCFC642209A102A8FFF711FE0028E6
:1038F000EDD00120EBE7000041542B554152543DDF
:1039000025642C25642C25642C2564004F4B000075
:103910000FB4094810B503AA0299FCF7CDFC06487C
:10392000FCF72EFE82B24FF0FF3303490348FFF746
:103930004BFA10BC5DF814FBBA08002070000020A0
:103940000649B1F80008020405D5C0F30E000022B4
:103950000A5408467047002070470000B800002055
:103960000348B0F800186FF30F01A0F80018704773
:10397000B8000020FEF77EFAFFF738FBFFF776FA73
:10398000FFF7BCFAFFF710FB3A48FEF725FE0021CF
:103990003848FEF7B1FF04213648FFF713F8364DDB
:1039A000012280212846FEF751FA0A20FFF79CFDEC
:1039B000324C207048B14FF47A7480212846FEF7CB
:1039C0003DFA2046FEF72CF9F7E7FFF779FD2CA02A
:1039D000FFF7B8FE20702DA0FFF7E0FD2178084426
:1039E00020700420FFF7F4FE2178002308442070A3
:1039F0001A4603210A20FFF71BFF21780844207094
:103A00000520FFF7A9FD2178084420700120FFF769
:103A100007FE2178084420700020FFF7D9FD2178A7
:103A2000084420700120FFF7A7FE21780844207089
:103A30000120FFF721FE2178084420700120FFF7C4
:103A400045FE2178084410F0FF00207009D04FF4A3
:103A5000FA7480212846FEF7F1F92046FEF7E0F8D7
:103A6000F7E7FFF77DFF0DA0FFF752FF6420FEF799
:103A7000D7F8F8E7280000200010014000000020DF
:103A800041544B2D4D5735373800000048454C4CBC
:103A90004F2041544B2D4D573537390046726F6DCD
:103AA0002041544B2D4D573537390D0A0000000089
:103AB00010B500290AD00878002807D005487844B6
:103AC000FDF79AFC002801D0002010BD0248784480
:103AD00010BD0000BE070000B607000010B50029A9
:103AE0000AD00878002807D005487844FDF784FC00
:103AF000002801D0002010BD0248784410BD00000D
:103B0000AE070000A607000021F00042A2F16052BB
:103B1000B2F5801F01F0004328BFD2F17F6C0BD9B2
:103B20005FEA001C43EAC20242EB507018BF7047C4
:103B300028BF20F001007047B2F5801FBCBF1846B7
:103B400070474FEA410C1CF5001F02D2084600F0F6
:103B5000FAB970B500F0BCF800000089FFF7F6BFB5
:103B60004FF00040A0F580007047000002494FF080
:103B7000000000F066BA00BF0000F87FDFF848C11F
:103B800070B51CEA111E1EBF1CEA13159EEA0C0F2D
:103B900095EA0C0F00F06F8081EA030423EA4C13CE
:103BA0004EEAD47E21EA4C1141F4801143F4801393
:103BB000AE44A1FB024CA0FB0365AEF17F7E36193B
:103BC00055EB0C05A1FB034C4CF10003A0FB021CC0
:103BD00016EB0C06654153F10003094218BF46F08D
:103BE000010613F4007F0BD14FEA03314FEA053091
:103BF000340341EA155140EA16506FF003020AE01F
:103C00004FEAC3214FEAC520F40241EA555140EA88
:103C100056506FF0020202EB2E4201EB025585EA8C
:103C2000CE710AD05FEA440C18BF24F0004450F172
:103C3000000041F1000120EAD47040F2FE7C6245B0
:103C400000D270BDA84214BF4FF080444FF04044F2
:103C5000002E08BF0024BEF1806FA8BFA1F1C041B3
:103C6000BDE8704080F282804FF0000001F1C04159
:103C700001F0004170479EEA0C0F0CEA131518BFC3
:103C800095EA0C0F06D04FF0000081EA030E0EF00B
:103C9000004170BD00F01CF88900013E00F007B83B
:103CA00000F009B84FEA430C5FEA5C5C08D081EA97
:103CB000030100F05BB84FEA410C5FEA5C5CF6D1AF
:103CC0004FF00000014970470000FF070000F87F37
:103CD0000EF1020E2EF0030E5EF8046B364205D490
:103CE000012A43EB030515F5001F12D8012841EB0B
:103CF000010C1CF5001F0CD80ED14FEAD17C15F534
:103D0000001F0CEB4C0C0CF1020C08BF4CEBD37CED
:103D100004E04FF0080C01E04FEAD37C0CEB4C05BB
:103D200026FA05F606F00706B6F1040C06D20EEBED
:103D3000860CBDE870404CF0010C6047DFE80CF0E9
:103D4000090B02024FF000414FF00000A1F50021E5
:103D500070BD19461046012851EB010418BFD4F577
:103D6000001484BF002001F0004170BD0808A0F5D8
:103D700000114FEA3101704743004FEAD30C4FEA7C
:103D80003C0C43401FBF40070CF1605113F0FE4F45
:103D900070471CF0006F03D100200CF00041704709
:103DA0000CF0004343EA507010B540EACC0000F03C
:103DB00084F800BF000000924FEA0001FFF7D6BF71
:103DC0004FF000414FF00000A1F5002170470000C6
:103DD00090EA010F48BF81F0004100F1C080421A13
:103DE0003CBF801A89184FEAD0524FF07F4C1CEA32
:103DF000410FA2EBD15318BF9CEA026F00F03B8049
:103E00004FF0004C4CEA00204CEA012121FA03FC5F
:103E100010EB0C0C1ED202F1FF325FEA1C2040EBCB
:103E2000C25038BF70471CF07F0F4FEA400C18BFDC
:103E3000BCF17F4F38BF7047C3F12003994008BFE2
:103E400020F00100BCF17F4F38BF7047A0F1C040A7
:103E500000F079B84FEA3C00000A40EBC25028BF9E
:103E60001CF0FF0F4FEA400CE6D018BFBCF17F4FAB
:103E700038BF7047EAE79CEA026F05D010EA5C0F92
:103E800008BF00F00040704710B500F016F800BF02
:103E900064FBBE3EB0FA80F310FA03F2C3F19D0357
:103EA0000AD0D90501EB1220530638BF704700F144
:103EB000010008BF20F0010070470EF1020E2EF045
:103EC000030E5EF8044B244204D44FEA4102B2F1DF
:103ED0007F4F11D84FEA4003B3F17F4F0CD80ED17A
:103EE0004FEAD07CB2F17F4F0CEB4C0C0CF1020C82
:103EF00008BF4CEBD17C04E04FF0080C01E04FEA26
:103F0000D17C0CEB4C0324FA03F404F00704B4F165
:103F1000040C06D20EEB840CBDE810404CF0010CF2
:103F20006047DFE80CF0070802024FF00040A0F500
:103F3000800010BD0846420018BFD2F1807288BFD1
:103F400000F0004010BDFF2141EAD050C00570478D
:103F500090EA010F48BF81F000413FF540AF421A9F
:103F600004D882F00042A0EB020011444FEAD05284
:103F70004FF07F4C1CEA410FA2EBD15318BF9CEAD3
:103F8000026F4AD04FF0004C4CEA00204CEA01216D
:103F900021FA03FCB0EB0C0C0FD412F0FE0F36D05C
:103FA0005FEA4C001DD5001240EBC25038BF70478D
:103FB0001CF03F0F18BF70470BE0A2F101025FEA4F
:103FC0001C2040EBC25038BF70471CF07F0F18BF59
:103FD0007047C3F12003994014BF401E20F0010038
:103FE000704780084FEA122308BF7047B0FA80FC80
:103FF000A2EB0C02CCF1280C60FA0CF093EA122F21
:1040000004BF00EBC25070474FEAC3707047130AF9
:104010005FEADC1008BF7047F6E79CEA026F04D045
:1040200010EA5C0F08BF0020704710B5FFF745FF8E
:1040300040DFF63E81F000407047FCF701BEFCF720
:1040400035BF0CF00F03092B08BF082000F0598082
:104050000A2B0BD0082B18BF704708BF1CF0400F6D
:104060000AD04FF000004FF0000170471CF0400FE5
:1040700018BF4FF0004070471CF0100F08D020F020
:10408000704300F07F4242EAD3014FEA4370704729
:1040900000F0604021F07F4242EA000201F07F40E0
:1040A00040EA727070474FF0FF0C4CF4E06C1CEA71
:1040B00011531CBF9CEA030C9445C2BFDA4201EBCA
:1040C00002517047002B0DD0BCF1000F0FD0002A19
:1040D00001F00041A4BF41F0E04141F07F614FF0A9
:1040E0000000704701F000414FF00000704750EAB7
:1040F00001334FF09B0C18BF4CF0806C7FF436AD51
:1041000070471CF4801F11D01CF4E02F03D06FEA1D
:10411000CC31490070474FF04050EFF3008222F05D
:10412000704242EA000282F3008870474FF00000BC
:104130007047010202030405060708090A0B0C0D6B
:104140000E0F101000000000000000000102030428
:10415000060708090000000001020304040000082B
:10416000000000000000000200010000100000003C
:1041700000000000000000003031323334353637A3
:10418000383941424344454640305800303132339B
:10419000343536373839616263646566403078009B
:1041A00030313233343536373839616263646566AD
:1041B0007870003031323334353637383941424344
:1041C000444546585000000002400000000000A096
:1041D0000000000005400000000000C800000000D2
:1041E0000C4000000000409C00000000194000004E
:1041F0000020BCBE0000000034400000BFC91B8E80
:1042000000000004B5400000504BCFD06607E2CF5D
:10421000010000006C4100003E8251AADFEEA7348D
:1042200001000000D9420000DCB5A0E23A301F973F
:10423000FFFFFFFFB4450000FD25A0C8E9A3C14F63
:10424000FFFFFFFFFF3F00000000008000000000B4
:10425000FF3F00000000008000000000A8430008AD
:1042600000000020280000006C010008D043000876
:1042700028000020380F0000880100081C00000002
:1042800043000000F8FFFFFF0C0000000E000000DC
:104290000F0000002E00000010010000430000008D
:1042A000F8FFFFFF00404040404040404040414157
:1042B00041414140404040404040404040404040FB
:1042C0004040404040050202020202020202020295
:1042D0000202020202202020202020202020200292
:1042E0000202020202029090909090901010101022
:1042F00010101010101010101010101010101010BE
:104300000202020202028888888888880808080851
:10431000080808080808080808080808080808081D
:104320000202020240000000000000000000000045
:10433000000000000000000000000000000000007D
:10434000000000000000000000000000000000006D
:10435000000000000000000000000000000000005D
:10436000000000000000000000000000000000004D
:10437000000000000000000000000000000000003D
:10438000000000000000000000000000000000002D
:10439000000000000000000000000000000000001D
:1043A000000000000000000000000000000000000D
:1043B00000000000000000000000000001000000FC
:1043C000100000000000000000127A000000000051
:0400000508000131BD
:00000001FF
